Component: ARM Compiler 5.06 update 4 (build 422) Tool: armlink [4d35d2]

==============================================================================

Section Cross References

    startup_stm32f427xx.o(RESET) refers to startup_stm32f427xx.o(STACK) for __initial_sp
    startup_stm32f427xx.o(RESET) refers to startup_stm32f427xx.o(.text) for Reset_Handler
    startup_stm32f427xx.o(RESET) refers to stm32f4xx_it.o(i.NMI_Handler) for NMI_Handler
    startup_stm32f427xx.o(RESET) refers to stm32f4xx_it.o(i.HardFault_Handler) for HardFault_Handler
    startup_stm32f427xx.o(RESET) refers to stm32f4xx_it.o(i.MemManage_Handler) for MemManage_Handler
    startup_stm32f427xx.o(RESET) refers to stm32f4xx_it.o(i.BusFault_Handler) for BusFault_Handler
    startup_stm32f427xx.o(RESET) refers to stm32f4xx_it.o(i.UsageFault_Handler) for UsageFault_Handler
    startup_stm32f427xx.o(RESET) refers to port.o(.emb_text) for SVC_Handler
    startup_stm32f427xx.o(RESET) refers to stm32f4xx_it.o(i.DebugMon_Handler) for DebugMon_Handler
    startup_stm32f427xx.o(RESET) refers to port.o(i.SysTick_Handler) for SysTick_Handler
    startup_stm32f427xx.o(RESET) refers to stm32f4xx_it.o(i.DMA1_Stream1_IRQHandler) for DMA1_Stream1_IRQHandler
    startup_stm32f427xx.o(RESET) refers to stm32f4xx_it.o(i.DMA1_Stream3_IRQHandler) for DMA1_Stream3_IRQHandler
    startup_stm32f427xx.o(RESET) refers to stm32f4xx_it.o(i.DMA1_Stream6_IRQHandler) for DMA1_Stream6_IRQHandler
    startup_stm32f427xx.o(RESET) refers to stm32f4xx_it.o(i.CAN1_TX_IRQHandler) for CAN1_TX_IRQHandler
    startup_stm32f427xx.o(RESET) refers to stm32f4xx_it.o(i.CAN1_RX0_IRQHandler) for CAN1_RX0_IRQHandler
    startup_stm32f427xx.o(RESET) refers to stm32f4xx_it.o(i.USART1_IRQHandler) for USART1_IRQHandler
    startup_stm32f427xx.o(RESET) refers to stm32f4xx_it.o(i.USART3_IRQHandler) for USART3_IRQHandler
    startup_stm32f427xx.o(RESET) refers to stm32f4xx_it.o(i.TIM6_DAC_IRQHandler) for TIM6_DAC_IRQHandler
==============================================================================

Removing Unused input sections from the image.

    Removing startup_stm32f427xx.o(HEAP), (512 bytes).
    Removing bsp_can.o(.rev16_text), (4 bytes).
    Removing bsp_can.o(.revsh_text), (4 bytes).
    Removing bsp_can.o(.rrx_text), (6 bytes).
    Removing bsp_can.o(i.get_moto_offset), (12 bytes).
    Removing bsp_can.o(i.get_total_angle), (58 bytes).
    Removing pid.o(.rev16_text), (4 bytes).
    Removing pid.o(.revsh_text), (4 bytes).
    Removing pid.o(.rrx_text), (6 bytes).
    Removing pid.o(i.X_PI), (124 bytes).
    Removing pid.o(i.Y_PI), (132 bytes).
    Removing pid.o(.bss), (100 bytes).
    Removing pid.o(.bss), (100 bytes).
    Removing pid.o(.bss), (100 bytes).
    Removing pid.o(.bss), (100 bytes).
    Removing pid.o(.bss), (100 bytes).
    Removing pid.o(.data), (24 bytes).
    Removing bsp_usart.o(.rev16_text), (4 bytes).
==============================================================================

Image Symbol Table

    Local Symbols

    Symbol Name                              Value     Ov Type        Size  Object(Section)

    ../Drivers/STM32F4xx_HAL_Driver/Src/stm32f4xx_hal.c 0x00000000   Number         0  stm32f4xx_hal.o ABSOLUTE
    ../Drivers/STM32F4xx_HAL_Driver/Src/stm32f4xx_hal_can.c 0x00000000   Number         0  stm32f4xx_hal_can.o ABSOLUTE
    ../Drivers/STM32F4xx_HAL_Driver/Src/stm32f4xx_hal_cortex.c 0x00000000   Number         0  stm32f4xx_hal_cortex.o ABSOLUTE
    ../Drivers/STM32F4xx_HAL_Driver/Src/stm32f4xx_hal_dma.c 0x00000000   Number         0  stm32f4xx_hal_dma.o ABSOLUTE
    ../Drivers/STM32F4xx_HAL_Driver/Src/stm32f4xx_hal_dma_ex.c 0x00000000   Number         0  stm32f4xx_hal_dma_ex.o ABSOLUTE
    ../Drivers/STM32F4xx_HAL_Driver/Src/stm32f4xx_hal_exti.c 0x00000000   Number         0  stm32f4xx_hal_exti.o ABSOLUTE
    ../Drivers/STM32F4xx_HAL_Driver/Src/stm32f4xx_hal_flash.c 0x00000000   Number         0  stm32f4xx_hal_flash.o ABSOLUTE
    ../Drivers/STM32F4xx_HAL_Driver/Src/stm32f4xx_hal_flash_ex.c 0x00000000   Number         0  stm32f4xx_hal_flash_ex.o ABSOLUTE
    ../Drivers/STM32F4xx_HAL_Driver/Src/stm32f4xx_hal_flash_ramfunc.c 0x00000000   Number         0  stm32f4xx_hal_flash_ramfunc.o ABSOLUTE
    ../Drivers/STM32F4xx_HAL_Driver/Src/stm32f4xx_hal_gpio.c 0x00000000   Number         0  stm32f4xx_hal_gpio.o ABSOLUTE
    ../Drivers/STM32F4xx_HAL_Driver/Src/stm32f4xx_hal_pwr.c 0x00000000   Number         0  stm32f4xx_hal_pwr.o ABSOLUTE
    ../Drivers/STM32F4xx_HAL_Driver/Src/stm32f4xx_hal_pwr_ex.c 0x00000000   Number         0  stm32f4xx_hal_pwr_ex.o ABSOLUTE
    ../Drivers/STM32F4xx_HAL_Driver/Src/stm32f4xx_hal_rcc.c 0x00000000   Number         0  stm32f4xx_hal_rcc.o ABSOLUTE
    ../Drivers/STM32F4xx_HAL_Driver/Src/stm32f4xx_hal_rcc_ex.c 0x00000000   Number         0  stm32f4xx_hal_rcc_ex.o ABSOLUTE
    ../Drivers/STM32F4xx_HAL_Driver/Src/stm32f4xx_hal_tim.c 0x00000000   Number         0  stm32f4xx_hal_tim.o ABSOLUTE
    ../Drivers/STM32F4xx_HAL_Driver/Src/stm32f4xx_hal_tim_ex.c 0x00000000   Number         0  stm32f4xx_hal_tim_ex.o ABSOLUTE
    ../Drivers/STM32F4xx_HAL_Driver/Src/stm32f4xx_hal_uart.c 0x00000000   Number         0  stm32f4xx_hal_uart.o ABSOLUTE
    ../Middlewares/Third_Party/FreeRTOS/Source/CMSIS_RTOS/cmsis_os.c 0x00000000   Number         0  cmsis_os.o ABSOLUTE
    ../Middlewares/Third_Party/FreeRTOS/Source/croutine.c 0x00000000   Number         0  croutine.o ABSOLUTE
    ../Middlewares/Third_Party/FreeRTOS/Source/event_groups.c 0x00000000   Number         0  event_groups.o ABSOLUTE
    ../Middlewares/Third_Party/FreeRTOS/Source/list.c 0x00000000   Number         0  list.o ABSOLUTE
    ../Middlewares/Third_Party/FreeRTOS/Source/portable/MemMang/heap_4.c 0x00000000   Number         0  heap_4.o ABSOLUTE
    ../Middlewares/Third_Party/FreeRTOS/Source/portable/RVDS/ARM_CM4F/port.c 0x00000000   Number         0  port.o ABSOLUTE
    ../Middlewares/Third_Party/FreeRTOS/Source/queue.c 0x00000000   Number         0  queue.o ABSOLUTE
    ../Middlewares/Third_Party/FreeRTOS/Source/stream_buffer.c 0x00000000   Number         0  stream_buffer.o ABSOLUTE
    ../Middlewares/Third_Party/FreeRTOS/Source/tasks.c 0x00000000   Number         0  tasks.o ABSOLUTE
    ../Middlewares/Third_Party/FreeRTOS/Source/timers.c 0x00000000   Number         0  timers.o ABSOLUTE
    ../Src/can.c                             0x00000000   Number         0  can.o ABSOLUTE
    ../Src/dma.c                             0x00000000   Number         0  dma.o ABSOLUTE
    ../Src/freertos.c                        0x00000000   Number         0  freertos.o ABSOLUTE
    ../Src/gpio.c                            0x00000000   Number         0  gpio.o ABSOLUTE
    ../Src/main.c                            0x00000000   Number         0  main.o ABSOLUTE
    ../Src/stm32f4xx_hal_msp.c               0x00000000   Number         0  stm32f4xx_hal_msp.o ABSOLUTE
    ../Src/stm32f4xx_hal_timebase_tim.c      0x00000000   Number         0  stm32f4xx_hal_timebase_tim.o ABSOLUTE
    ../Src/stm32f4xx_it.c                    0x00000000   Number         0  stm32f4xx_it.o ABSOLUTE
    ../Src/system_stm32f4xx.c                0x00000000   Number         0  system_stm32f4xx.o ABSOLUTE
    ../Src/tim.c                             0x00000000   Number         0  tim.o ABSOLUTE
    ../Src/usart.c                           0x00000000   Number         0  usart.o ABSOLUTE
    ../clib/../cmprslib/zerorunl2.c          0x00000000   Number         0  __dczerorl2.o ABSOLUTE
    ../clib/microlib/division.c              0x00000000   Number         0  uldiv.o ABSOLUTE
    ../clib/microlib/init/entry.s            0x00000000   Number         0  entry9a.o ABSOLUTE
    ../clib/microlib/init/entry.s            0x00000000   Number         0  entry5.o ABSOLUTE
    ../clib/microlib/init/entry.s            0x00000000   Number         0  entry9b.o ABSOLUTE
    ../clib/microlib/init/entry.s            0x00000000   Number         0  entry10a.o ABSOLUTE
    ../clib/microlib/init/entry.s            0x00000000   Number         0  entry10b.o ABSOLUTE
    ../clib/microlib/init/entry.s            0x00000000   Number         0  entry11a.o ABSOLUTE
    ../clib/microlib/init/entry.s            0x00000000   Number         0  entry8b.o ABSOLUTE
    ../clib/microlib/init/entry.s            0x00000000   Number         0  entry11b.o ABSOLUTE
    ../clib/microlib/init/entry.s            0x00000000   Number         0  entry7a.o ABSOLUTE
    ../clib/microlib/init/entry.s            0x00000000   Number         0  entry2.o ABSOLUTE
    ../clib/microlib/init/entry.s            0x00000000   Number         0  entry7b.o ABSOLUTE
    ../clib/microlib/init/entry.s            0x00000000   Number         0  entry8a.o ABSOLUTE
    ../clib/microlib/init/entry.s            0x00000000   Number         0  entry.o ABSOLUTE
    ../clib/microlib/longlong.c              0x00000000   Number         0  llshl.o ABSOLUTE
    ../clib/microlib/longlong.c              0x00000000   Number         0  llushr.o ABSOLUTE
    ../clib/microlib/malloc/malloc.c         0x00000000   Number         0  malloc.o ABSOLUTE
    ../clib/microlib/malloc/malloc.c         0x00000000   Number         0  malloca.o ABSOLUTE
    ../clib/microlib/malloc/malloc.c         0x00000000   Number         0  mallocr.o ABSOLUTE
    ../clib/microlib/malloc/malloc.c         0x00000000   Number         0  mallocra.o ABSOLUTE
    ../clib/microlib/malloc/mvars.c          0x00000000   Number         0  mvars.o ABSOLUTE
    ../clib/microlib/string/memcpy.c         0x00000000   Number         0  memcpyb.o ABSOLUTE
    ../clib/microlib/string/memcpy.c         0x00000000   Number         0  memcpya.o ABSOLUTE
    ../clib/microlib/string/memset.c         0x00000000   Number         0  memseta.o ABSOLUTE
    ../clib/microlib/string/memset.c         0x00000000   Number         0  memset.o ABSOLUTE
    ..\Drivers\STM32F4xx_HAL_Driver\Src\stm32f4xx_hal.c 0x00000000   Number         0  stm32f4xx_hal.o ABSOLUTE
    ..\Drivers\STM32F4xx_HAL_Driver\Src\stm32f4xx_hal_can.c 0x00000000   Number         0  stm32f4xx_hal_can.o ABSOLUTE
    ..\Drivers\STM32F4xx_HAL_Driver\Src\stm32f4xx_hal_cortex.c 0x00000000   Number         0  stm32f4xx_hal_cortex.o ABSOLUTE
    ..\Drivers\STM32F4xx_HAL_Driver\Src\stm32f4xx_hal_dma.c 0x00000000   Number         0  stm32f4xx_hal_dma.o ABSOLUTE
    ..\Drivers\STM32F4xx_HAL_Driver\Src\stm32f4xx_hal_dma_ex.c 0x00000000   Number         0  stm32f4xx_hal_dma_ex.o ABSOLUTE
    ..\Drivers\STM32F4xx_HAL_Driver\Src\stm32f4xx_hal_exti.c 0x00000000   Number         0  stm32f4xx_hal_exti.o ABSOLUTE
    ..\Drivers\STM32F4xx_HAL_Driver\Src\stm32f4xx_hal_flash.c 0x00000000   Number         0  stm32f4xx_hal_flash.o ABSOLUTE
    ..\Drivers\STM32F4xx_HAL_Driver\Src\stm32f4xx_hal_flash_ex.c 0x00000000   Number         0  stm32f4xx_hal_flash_ex.o ABSOLUTE
    ..\Drivers\STM32F4xx_HAL_Driver\Src\stm32f4xx_hal_flash_ramfunc.c 0x00000000   Number         0  stm32f4xx_hal_flash_ramfunc.o ABSOLUTE
    ..\Drivers\STM32F4xx_HAL_Driver\Src\stm32f4xx_hal_gpio.c 0x00000000   Number         0  stm32f4xx_hal_gpio.o ABSOLUTE
    ..\Drivers\STM32F4xx_HAL_Driver\Src\stm32f4xx_hal_pwr.c 0x00000000   Number         0  stm32f4xx_hal_pwr.o ABSOLUTE
    ..\Drivers\STM32F4xx_HAL_Driver\Src\stm32f4xx_hal_pwr_ex.c 0x00000000   Number         0  stm32f4xx_hal_pwr_ex.o ABSOLUTE
    ..\Drivers\STM32F4xx_HAL_Driver\Src\stm32f4xx_hal_rcc.c 0x00000000   Number         0  stm32f4xx_hal_rcc.o ABSOLUTE
    ..\Drivers\STM32F4xx_HAL_Driver\Src\stm32f4xx_hal_rcc_ex.c 0x00000000   Number         0  stm32f4xx_hal_rcc_ex.o ABSOLUTE
    ..\Drivers\STM32F4xx_HAL_Driver\Src\stm32f4xx_hal_tim.c 0x00000000   Number         0  stm32f4xx_hal_tim.o ABSOLUTE
    ..\Drivers\STM32F4xx_HAL_Driver\Src\stm32f4xx_hal_tim_ex.c 0x00000000   Number         0  stm32f4xx_hal_tim_ex.o ABSOLUTE
    ..\Drivers\STM32F4xx_HAL_Driver\Src\stm32f4xx_hal_uart.c 0x00000000   Number         0  stm32f4xx_hal_uart.o ABSOLUTE
    ..\Middlewares\Third_Party\FreeRTOS\Source\CMSIS_RTOS\cmsis_os.c 0x00000000   Number         0  cmsis_os.o ABSOLUTE
    ..\Middlewares\Third_Party\FreeRTOS\Source\portable\RVDS\ARM_CM4F\port.c 0x00000000   Number         0  port.o ABSOLUTE
    ..\Src\Remote_Control.c                  0x00000000   Number         0  remote_control.o ABSOLUTE
    ..\Src\can.c                             0x00000000   Number         0  can.o ABSOLUTE
    ..\Src\dma.c                             0x00000000   Number         0  dma.o ABSOLUTE
    ..\Src\freertos.c                        0x00000000   Number         0  freertos.o ABSOLUTE
    ..\Src\gpio.c                            0x00000000   Number         0  gpio.o ABSOLUTE
    ..\Src\main.c                            0x00000000   Number         0  main.o ABSOLUTE
    ..\Src\stm32f4xx_hal_msp.c               0x00000000   Number         0  stm32f4xx_hal_msp.o ABSOLUTE
    ..\Src\stm32f4xx_hal_timebase_tim.c      0x00000000   Number         0  stm32f4xx_hal_timebase_tim.o ABSOLUTE
    ..\Src\stm32f4xx_it.c                    0x00000000   Number         0  stm32f4xx_it.o ABSOLUTE
    ..\Src\system_stm32f4xx.c                0x00000000   Number         0  system_stm32f4xx.o ABSOLUTE
    ..\Src\tim.c                             0x00000000   Number         0  tim.o ABSOLUTE
    ..\Src\usart.c                           0x00000000   Number         0  usart.o ABSOLUTE
    ..\\Src\\Remote_Control.c                0x00000000   Number         0  remote_control.o ABSOLUTE
    bsp\Ammo-Booster.c                       0x00000000   Number         0  ammo-booster.o ABSOLUTE
    bsp\CRC8_CRC16.c                         0x00000000   Number         0  crc8_crc16.o ABSOLUTE
    bsp\Gimble.c                             0x00000000   Number         0  gimble.o ABSOLUTE
    bsp\RMmaster.c                           0x00000000   Number         0  rmmaster.o ABSOLUTE
    bsp\\Ammo-Booster.c                      0x00000000   Number         0  ammo-booster.o ABSOLUTE
    bsp\\CRC8_CRC16.c                        0x00000000   Number         0  crc8_crc16.o ABSOLUTE
    bsp\\Gimble.c                            0x00000000   Number         0  gimble.o ABSOLUTE
    bsp\\RMmaster.c                          0x00000000   Number         0  rmmaster.o ABSOLUTE
    bsp\\bsp_can.c                           0x00000000   Number         0  bsp_can.o ABSOLUTE
    bsp\\bsp_usart.c                         0x00000000   Number         0  bsp_usart.o ABSOLUTE
    bsp\\chassis.c                           0x00000000   Number         0  chassis.o ABSOLUTE
    bsp\\fifo.c                              0x00000000   Number         0  fifo.o ABSOLUTE
    bsp\\key.c                               0x00000000   Number         0  key.o ABSOLUTE
    bsp\\pid.c                               0x00000000   Number         0  pid.o ABSOLUTE
    bsp\\rc.c                                0x00000000   Number         0  rc.o ABSOLUTE
    bsp\bsp_can.c                            0x00000000   Number         0  bsp_can.o ABSOLUTE
    bsp\bsp_usart.c                          0x00000000   Number         0  bsp_usart.o ABSOLUTE
    bsp\chassis.c                            0x00000000   Number         0  chassis.o ABSOLUTE
    bsp\fifo.c                               0x00000000   Number         0  fifo.o ABSOLUTE
    bsp\key.c                                0x00000000   Number         0  key.o ABSOLUTE
    bsp\pid.c                                0x00000000   Number         0  pid.o ABSOLUTE
    bsp\rc.c                                 0x00000000   Number         0  rc.o ABSOLUTE
    dc.s                                     0x00000000   Number         0  dc.o ABSOLUTE
    handlers.s                               0x00000000   Number         0  handlers.o ABSOLUTE
    init.s                                   0x00000000   Number         0  init.o ABSOLUTE
    startup_stm32f427xx.s                    0x00000000   Number         0  startup_stm32f427xx.o ABSOLUTE
    RESET                                    0x08000000   Section      428  startup_stm32f427xx.o(RESET)
    .ARM.Collect$$$$00000000                 0x080001ac   Section        0  entry.o(.ARM.Collect$$$$00000000)
    .ARM.Collect$$$$00000001                 0x080001ac   Section        4  entry2.o(.ARM.Collect$$$$00000001)
    .ARM.Collect$$$$00000004                 0x080001b0   Section        4  entry5.o(.ARM.Collect$$$$00000004)
    .ARM.Collect$$$$00000008                 0x080001b4   Section        0  entry7b.o(.ARM.Collect$$$$00000008)
    .ARM.Collect$$$$0000000A                 0x080001b4   Section        0  entry8b.o(.ARM.Collect$$$$0000000A)
    .ARM.Collect$$$$0000000B                 0x080001b4   Section        8  entry9a.o(.ARM.Collect$$$$0000000B)
    .ARM.Collect$$$$0000000D                 0x080001bc   Section        0  entry10a.o(.ARM.Collect$$$$0000000D)
    .ARM.Collect$$$$0000000F                 0x080001bc   Section        0  entry11a.o(.ARM.Collect$$$$0000000F)
    .ARM.Collect$$$$00002712                 0x080001bc   Section        4  entry2.o(.ARM.Collect$$$$00002712)
    __lit__00000000                          0x080001bc   Data           4  entry2.o(.ARM.Collect$$$$00002712)
    .emb_text                                0x080001c0   Section      190  port.o(.emb_text)
    $v0                                      0x080001c0   Number         0  port.o(.emb_text)
    .text                                    0x08000280   Section       36  startup_stm32f427xx.o(.text)
    $v0                                      0x08000280   Number         0  startup_stm32f427xx.o(.text)
    .text                                    0x080002a4   Section        0  uldiv.o(.text)
    .text                                    0x08000306   Section        0  memcpya.o(.text)
    .text                                    0x0800032a   Section        0  memseta.o(.text)
    .text                                    0x0800034e   Section        0  llshl.o(.text)
    .text                                    0x0800036c   Section        0  llushr.o(.text)
    .text                                    0x0800038c   Section       36  init.o(.text)
    .text                                    0x080003b0   Section        0  __dczerorl2.o(.text)
    i.BusFault_Handler                       0x08000406   Section        0  stm32f4xx_it.o(i.BusFault_Handler)
    i.CAN1_RX0_IRQHandler                    0x08000408   Section        0  stm32f4xx_it.o(i.CAN1_RX0_IRQHandler)
    i.CAN1_TX_IRQHandler                     0x08000414   Section        0  stm32f4xx_it.o(i.CAN1_TX_IRQHandler)
    i.CAN2_RX0_IRQHandler                    0x08000420   Section        0  stm32f4xx_it.o(i.CAN2_RX0_IRQHandler)
    i.CAN2_TX_IRQHandler                     0x0800042c   Section        0  stm32f4xx_it.o(i.CAN2_TX_IRQHandler)
    i.CAN_Receive_IT                         0x08000438   Section        0  stm32f4xx_hal_can.o(i.CAN_Receive_IT)
    CAN_Receive_IT                           0x08000439   Thumb Code   292  stm32f4xx_hal_can.o(i.CAN_Receive_IT)
    i.Callback_RC_Handle                     0x0800055c   Section        0  remote_control.o(i.Callback_RC_Handle)
    i.DMA1_Stream1_IRQHandler                0x080005fc   Section        0  stm32f4xx_it.o(i.DMA1_Stream1_IRQHandler)
    i.DMA1_Stream3_IRQHandler                0x08000608   Section        0  stm32f4xx_it.o(i.DMA1_Stream3_IRQHandler)
    i.DMA1_Stream6_IRQHandler                0x08000614   Section        0  stm32f4xx_it.o(i.DMA1_Stream6_IRQHandler)
    i.DMA2_Stream1_IRQHandler                0x08000620   Section        0  stm32f4xx_it.o(i.DMA2_Stream1_IRQHandler)
    i.DMA2_Stream2_IRQHandler                0x0800062c   Section        0  stm32f4xx_it.o(i.DMA2_Stream2_IRQHandler)
    i.DMA2_Stream6_IRQHandler                0x08000638   Section        0  stm32f4xx_it.o(i.DMA2_Stream6_IRQHandler)
    i.DMA2_Stream7_IRQHandler                0x08000644   Section        0  stm32f4xx_it.o(i.DMA2_Stream7_IRQHandler)
    i.DMA_CalcBaseAndBitshift                0x08000650   Section        0  stm32f4xx_hal_dma.o(i.DMA_CalcBaseAndBitshift)
    DMA_CalcBaseAndBitshift                  0x08000651   Thumb Code    34  stm32f4xx_hal_dma.o(i.DMA_CalcBaseAndBitshift)
    i.DMA_CheckFifoParam                     0x08000678   Section        0  stm32f4xx_hal_dma.o(i.DMA_CheckFifoParam)
    DMA_CheckFifoParam                       0x08000679   Thumb Code    84  stm32f4xx_hal_dma.o(i.DMA_CheckFifoParam)
    i.DMA_SetConfig                          0x080006cc   Section        0  stm32f4xx_hal_dma.o(i.DMA_SetConfig)
    DMA_SetConfig                            0x080006cd   Thumb Code    40  stm32f4xx_hal_dma.o(i.DMA_SetConfig)
    i.DebugMon_Handler                       0x080006f4   Section        0  stm32f4xx_it.o(i.DebugMon_Handler)
    i.Error_Handler                          0x080006f6   Section        0  main.o(i.Error_Handler)
    i.Gimble_move_X                          0x080006f8   Section        0  gimble.o(i.Gimble_move_X)
    i.Gimble_move_Y                          0x080008b4   Section        0  gimble.o(i.Gimble_move_Y)
    i.HAL_CAN_ConfigFilter                   0x080009b0   Section        0  stm32f4xx_hal_can.o(i.HAL_CAN_ConfigFilter)
    i.HAL_CAN_ErrorCallback                  0x08000aa8   Section        0  stm32f4xx_hal_can.o(i.HAL_CAN_ErrorCallback)
    i.HAL_CAN_IRQHandler                     0x08000aac   Section        0  stm32f4xx_hal_can.o(i.HAL_CAN_IRQHandler)
    i.HAL_CAN_Init                           0x08000ce0   Section        0  stm32f4xx_hal_can.o(i.HAL_CAN_Init)
    i.HAL_CAN_MspInit                        0x08000e2c   Section        0  can.o(i.HAL_CAN_MspInit)
    i.HAL_CAN_Receive_IT                     0x08000f44   Section        0  stm32f4xx_hal_can.o(i.HAL_CAN_Receive_IT)
    i.HAL_CAN_RxCpltCallback                 0x08000ffc   Section        0  bsp_can.o(i.HAL_CAN_RxCpltCallback)
    i.HAL_CAN_Transmit                       0x080010c4   Section        0  stm32f4xx_hal_can.o(i.HAL_CAN_Transmit)
    i.HAL_CAN_TxCpltCallback                 0x0800127c   Section        0  stm32f4xx_hal_can.o(i.HAL_CAN_TxCpltCallback)
    i.HAL_DMA_Abort                          0x0800127e   Section        0  stm32f4xx_hal_dma.o(i.HAL_DMA_Abort)
    i.HAL_DMA_Abort_IT                       0x08001310   Section        0  stm32f4xx_hal_dma.o(i.HAL_DMA_Abort_IT)
    i.HAL_DMA_IRQHandler                     0x08001334   Section        0  stm32f4xx_hal_dma.o(i.HAL_DMA_IRQHandler)
    i.HAL_DMA_Init                           0x080014d4   Section        0  stm32f4xx_hal_dma.o(i.HAL_DMA_Init)
    i.HAL_DMA_Start                          0x080015a8   Section        0  stm32f4xx_hal_dma.o(i.HAL_DMA_Start)
    i.HAL_DMA_Start_IT                       0x080015ee   Section        0  stm32f4xx_hal_dma.o(i.HAL_DMA_Start_IT)
    i.HAL_Delay                              0x0800165c   Section        0  stm32f4xx_hal.o(i.HAL_Delay)
    i.HAL_GPIO_Init                          0x08001680   Section        0  stm32f4xx_hal_gpio.o(i.HAL_GPIO_Init)
    i.HAL_GPIO_TogglePin                     0x0800186c   Section        0  stm32f4xx_hal_gpio.o(i.HAL_GPIO_TogglePin)
    i.HAL_GPIO_WritePin                      0x0800187c   Section        0  stm32f4xx_hal_gpio.o(i.HAL_GPIO_WritePin)
    i.HAL_GetTick                            0x08001888   Section        0  stm32f4xx_hal.o(i.HAL_GetTick)
    i.HAL_IncTick                            0x08001894   Section        0  stm32f4xx_hal.o(i.HAL_IncTick)
    i.HAL_Init                               0x080018a4   Section        0  stm32f4xx_hal.o(i.HAL_Init)
    i.HAL_InitTick                           0x080018d8   Section        0  stm32f4xx_hal_timebase_tim.o(i.HAL_InitTick)
    i.HAL_MspInit                            0x0800194c   Section        0  stm32f4xx_hal_msp.o(i.HAL_MspInit)
    i.HAL_NVIC_EnableIRQ                     0x08001984   Section        0  stm32f4xx_hal_cortex.o(i.HAL_NVIC_EnableIRQ)
    i.HAL_NVIC_SetPriority                   0x080019a0   Section        0  stm32f4xx_hal_cortex.o(i.HAL_NVIC_SetPriority)
    i.HAL_NVIC_SetPriorityGrouping           0x080019e0   Section        0  stm32f4xx_hal_cortex.o(i.HAL_NVIC_SetPriorityGrouping)
    i.HAL_RCC_ClockConfig                    0x08001a04   Section        0  stm32f4xx_hal_rcc.o(i.HAL_RCC_ClockConfig)
    i.HAL_RCC_GetClockConfig                 0x08001b38   Section        0  stm32f4xx_hal_rcc.o(i.HAL_RCC_GetClockConfig)
    i.HAL_RCC_GetPCLK1Freq                   0x08001b78   Section        0  stm32f4xx_hal_rcc.o(i.HAL_RCC_GetPCLK1Freq)
    i.HAL_RCC_GetPCLK2Freq                   0x08001b98   Section        0  stm32f4xx_hal_rcc.o(i.HAL_RCC_GetPCLK2Freq)
    i.HAL_RCC_GetSysClockFreq                0x08001bb8   Section        0  stm32f4xx_hal_rcc.o(i.HAL_RCC_GetSysClockFreq)
    i.HAL_RCC_OscConfig                      0x08001c1c   Section        0  stm32f4xx_hal_rcc.o(i.HAL_RCC_OscConfig)
    i.HAL_TIMEx_BreakCallback                0x08001f74   Section        0  stm32f4xx_hal_tim_ex.o(i.HAL_TIMEx_BreakCallback)
    i.HAL_TIMEx_CommutCallback               0x08001f76   Section        0  stm32f4xx_hal_tim_ex.o(i.HAL_TIMEx_CommutCallback)
    i.HAL_TIMEx_ConfigBreakDeadTime          0x08001f78   Section        0  stm32f4xx_hal_tim_ex.o(i.HAL_TIMEx_ConfigBreakDeadTime)
    i.HAL_TIMEx_MasterConfigSynchronization  0x08001fcc   Section        0  stm32f4xx_hal_tim_ex.o(i.HAL_TIMEx_MasterConfigSynchronization)
    i.HAL_TIM_Base_Init                      0x0800205c   Section        0  stm32f4xx_hal_tim.o(i.HAL_TIM_Base_Init)
    i.HAL_TIM_Base_MspInit                   0x080020b8   Section        0  tim.o(i.HAL_TIM_Base_MspInit)
    i.HAL_TIM_Base_Start_IT                  0x080020f8   Section        0  stm32f4xx_hal_tim.o(i.HAL_TIM_Base_Start_IT)
    i.HAL_TIM_ConfigClockSource              0x08002178   Section        0  stm32f4xx_hal_tim.o(i.HAL_TIM_ConfigClockSource)
    i.HAL_TIM_IC_CaptureCallback             0x08002254   Section        0  remote_control.o(i.HAL_TIM_IC_CaptureCallback)
    i.HAL_TIM_IC_ConfigChannel               0x080022b4   Section        0  stm32f4xx_hal_tim.o(i.HAL_TIM_IC_ConfigChannel)
    i.HAL_TIM_IC_Init                        0x080023d4   Section        0  stm32f4xx_hal_tim.o(i.HAL_TIM_IC_Init)
    i.HAL_TIM_IC_MspInit                     0x08002430   Section        0  tim.o(i.HAL_TIM_IC_MspInit)
    i.HAL_TIM_IRQHandler                     0x08002500   Section        0  stm32f4xx_hal_tim.o(i.HAL_TIM_IRQHandler)
    i.HAL_TIM_MspPostInit                    0x08002668   Section        0  tim.o(i.HAL_TIM_MspPostInit)
    i.HAL_TIM_OC_DelayElapsedCallback        0x08002710   Section        0  stm32f4xx_hal_tim.o(i.HAL_TIM_OC_DelayElapsedCallback)
    i.HAL_TIM_PWM_ConfigChannel              0x08002712   Section        0  stm32f4xx_hal_tim.o(i.HAL_TIM_PWM_ConfigChannel)
    i.HAL_TIM_PWM_Init                       0x080027de   Section        0  stm32f4xx_hal_tim.o(i.HAL_TIM_PWM_Init)
    i.HAL_TIM_PWM_MspInit                    0x08002838   Section        0  stm32f4xx_hal_tim.o(i.HAL_TIM_PWM_MspInit)
    i.HAL_TIM_PWM_PulseFinishedCallback      0x0800283a   Section        0  stm32f4xx_hal_tim.o(i.HAL_TIM_PWM_PulseFinishedCallback)
    i.HAL_TIM_PWM_Start                      0x0800283c   Section        0  stm32f4xx_hal_tim.o(i.HAL_TIM_PWM_Start)
    i.HAL_TIM_PeriodElapsedCallback          0x0800290c   Section        0  main.o(i.HAL_TIM_PeriodElapsedCallback)
    i.HAL_TIM_TriggerCallback                0x08002920   Section        0  stm32f4xx_hal_tim.o(i.HAL_TIM_TriggerCallback)
    i.HAL_UARTEx_RxEventCallback             0x08002922   Section        0  stm32f4xx_hal_uart.o(i.HAL_UARTEx_RxEventCallback)
    i.HAL_UART_DMAStop                       0x08002924   Section        0  stm32f4xx_hal_uart.o(i.HAL_UART_DMAStop)
    i.HAL_UART_ErrorCallback                 0x08002994   Section        0  stm32f4xx_hal_uart.o(i.HAL_UART_ErrorCallback)
    i.HAL_UART_IDLE_IRQHandler               0x08002998   Section        0  usart.o(i.HAL_UART_IDLE_IRQHandler)
    i.HAL_UART_IRQHandler                    0x08002a78   Section        0  stm32f4xx_hal_uart.o(i.HAL_UART_IRQHandler)
    i.HAL_UART_Init                          0x08002ce0   Section        0  stm32f4xx_hal_uart.o(i.HAL_UART_Init)
    i.HAL_UART_MspInit                       0x08002d44   Section        0  usart.o(i.HAL_UART_MspInit)
    i.HAL_UART_Receive_DMA                   0x08003064   Section        0  stm32f4xx_hal_uart.o(i.HAL_UART_Receive_DMA)
    i.HAL_UART_Receive_IT_IDLE               0x0800308e   Section        0  usart.o(i.HAL_UART_Receive_IT_IDLE)
    i.HAL_UART_RxCpltCallback                0x080030a0   Section        0  stm32f4xx_hal_uart.o(i.HAL_UART_RxCpltCallback)
    i.HAL_UART_RxHalfCpltCallback            0x080030a2   Section        0  stm32f4xx_hal_uart.o(i.HAL_UART_RxHalfCpltCallback)
    i.HAL_UART_Transmit                      0x080030a4   Section        0  stm32f4xx_hal_uart.o(i.HAL_UART_Transmit)
    i.HAL_UART_Transmit_DMA                  0x08003154   Section        0  stm32f4xx_hal_uart.o(i.HAL_UART_Transmit_DMA)
    i.HAL_UART_TxCpltCallback                0x080031e0   Section        0  stm32f4xx_hal_uart.o(i.HAL_UART_TxCpltCallback)
    i.HAL_UART_TxHalfCpltCallback            0x080031e2   Section        0  stm32f4xx_hal_uart.o(i.HAL_UART_TxHalfCpltCallback)
    i.HardFault_Handler                      0x080031e4   Section        0  stm32f4xx_it.o(i.HardFault_Handler)
    i.MX_CAN1_Init                           0x080031e8   Section        0  can.o(i.MX_CAN1_Init)
    i.MX_CAN2_Init                           0x08003230   Section        0  can.o(i.MX_CAN2_Init)
    i.MX_DMA_Init                            0x08003278   Section        0  dma.o(i.MX_DMA_Init)
    i.MX_FREERTOS_Init                       0x08003314   Section        0  freertos.o(i.MX_FREERTOS_Init)
    i.MX_GPIO_Init                           0x080033a8   Section        0  gpio.o(i.MX_GPIO_Init)
    i.MX_TIM1_Init                           0x080034c8   Section        0  tim.o(i.MX_TIM1_Init)
    i.MX_TIM2_Init                           0x08003574   Section        0  tim.o(i.MX_TIM2_Init)
    i.MX_TIM8_Init                           0x0800362c   Section        0  tim.o(i.MX_TIM8_Init)
    i.MX_UART7_Init                          0x080036f8   Section        0  usart.o(i.MX_UART7_Init)
    i.MX_UART8_Init                          0x08003730   Section        0  usart.o(i.MX_UART8_Init)
    i.MX_USART1_UART_Init                    0x08003768   Section        0  usart.o(i.MX_USART1_UART_Init)
    i.MX_USART3_UART_Init                    0x080037a8   Section        0  usart.o(i.MX_USART3_UART_Init)
    i.MX_USART6_UART_Init                    0x080037e0   Section        0  usart.o(i.MX_USART6_UART_Init)
    i.MemManage_Handler                      0x08003818   Section        0  stm32f4xx_it.o(i.MemManage_Handler)
    i.NMI_Handler                            0x0800381a   Section        0  stm32f4xx_it.o(i.NMI_Handler)
    i.PID                                    0x0800381c   Section        0  gimble.o(i.PID)
    i.PID1                                   0x080038cc   Section        0  gimble.o(i.PID1)
    i.PID_init                               0x0800397c   Section        0  pid.o(i.PID_init)
    i.StartDefaultTask                       0x08003ad0   Section        0  freertos.o(i.StartDefaultTask)
    i.StartTask02                            0x08003b04   Section        0  freertos.o(i.StartTask02)
    i.StartTask03                            0x08003b38   Section        0  freertos.o(i.StartTask03)
    i.StartTask04                            0x08003b50   Section        0  freertos.o(i.StartTask04)
    i.StartTask05                            0x08003b78   Section        0  freertos.o(i.StartTask05)
    i.StartTask06                            0x08003be0   Section        0  freertos.o(i.StartTask06)
    i.SysTick_Handler                        0x08003e18   Section        0  port.o(i.SysTick_Handler)
    i.SystemClock_Config                     0x08003e44   Section        0  main.o(i.SystemClock_Config)
    i.SystemInit                             0x08003ed4   Section        0  system_stm32f4xx.o(i.SystemInit)
    i.TIM6_DAC_IRQHandler                    0x08003f28   Section        0  stm32f4xx_it.o(i.TIM6_DAC_IRQHandler)
    i.TIM_Base_SetConfig                     0x08003f34   Section        0  stm32f4xx_hal_tim.o(i.TIM_Base_SetConfig)
    i.TIM_CCxChannelCmd                      0x08003ffc   Section        0  stm32f4xx_hal_tim.o(i.TIM_CCxChannelCmd)
    i.TIM_ETR_SetConfig                      0x08004016   Section        0  stm32f4xx_hal_tim.o(i.TIM_ETR_SetConfig)
    i.TIM_ITRx_SetConfig                     0x0800402a   Section        0  stm32f4xx_hal_tim.o(i.TIM_ITRx_SetConfig)
    TIM_ITRx_SetConfig                       0x0800402b   Thumb Code    16  stm32f4xx_hal_tim.o(i.TIM_ITRx_SetConfig)
    i.TIM_OC1_SetConfig                      0x0800403c   Section        0  stm32f4xx_hal_tim.o(i.TIM_OC1_SetConfig)
    TIM_OC1_SetConfig                        0x0800403d   Thumb Code    88  stm32f4xx_hal_tim.o(i.TIM_OC1_SetConfig)
    i.TIM_OC2_SetConfig                      0x0800409c   Section        0  stm32f4xx_hal_tim.o(i.TIM_OC2_SetConfig)
    i.TIM_OC3_SetConfig                      0x08004108   Section        0  stm32f4xx_hal_tim.o(i.TIM_OC3_SetConfig)
    TIM_OC3_SetConfig                        0x08004109   Thumb Code    96  stm32f4xx_hal_tim.o(i.TIM_OC3_SetConfig)
    i.TIM_OC4_SetConfig                      0x08004170   Section        0  stm32f4xx_hal_tim.o(i.TIM_OC4_SetConfig)
    TIM_OC4_SetConfig                        0x08004171   Thumb Code    70  stm32f4xx_hal_tim.o(i.TIM_OC4_SetConfig)
    i.TIM_TI1_ConfigInputStage               0x080041c0   Section        0  stm32f4xx_hal_tim.o(i.TIM_TI1_ConfigInputStage)
    TIM_TI1_ConfigInputStage                 0x080041c1   Thumb Code    34  stm32f4xx_hal_tim.o(i.TIM_TI1_ConfigInputStage)
    i.TIM_TI1_SetConfig                      0x080041e4   Section        0  stm32f4xx_hal_tim.o(i.TIM_TI1_SetConfig)
    i.TIM_TI2_ConfigInputStage               0x08004264   Section        0  stm32f4xx_hal_tim.o(i.TIM_TI2_ConfigInputStage)
    TIM_TI2_ConfigInputStage                 0x08004265   Thumb Code    36  stm32f4xx_hal_tim.o(i.TIM_TI2_ConfigInputStage)
    i.TIM_TI2_SetConfig                      0x08004288   Section        0  stm32f4xx_hal_tim.o(i.TIM_TI2_SetConfig)
    TIM_TI2_SetConfig                        0x08004289   Thumb Code    54  stm32f4xx_hal_tim.o(i.TIM_TI2_SetConfig)
    i.UART8_IRQHandler                       0x080042c0   Section        0  stm32f4xx_it.o(i.UART8_IRQHandler)
    i.UART_DMAAbortOnError                   0x08004388   Section        0  stm32f4xx_hal_uart.o(i.UART_DMAAbortOnError)
    UART_DMAAbortOnError                     0x08004389   Thumb Code    16  stm32f4xx_hal_uart.o(i.UART_DMAAbortOnError)
    i.UART_DMAError                          0x08004398   Section        0  stm32f4xx_hal_uart.o(i.UART_DMAError)
    UART_DMAError                            0x08004399   Thumb Code    74  stm32f4xx_hal_uart.o(i.UART_DMAError)
    i.UART_DMAReceiveCplt                    0x080043e2   Section        0  stm32f4xx_hal_uart.o(i.UART_DMAReceiveCplt)
    UART_DMAReceiveCplt                      0x080043e3   Thumb Code   130  stm32f4xx_hal_uart.o(i.UART_DMAReceiveCplt)
    i.UART_DMARxHalfCplt                     0x08004464   Section        0  stm32f4xx_hal_uart.o(i.UART_DMARxHalfCplt)
    UART_DMARxHalfCplt                       0x08004465   Thumb Code    26  stm32f4xx_hal_uart.o(i.UART_DMARxHalfCplt)
    i.UART_DMATransmitCplt                   0x0800447e   Section        0  stm32f4xx_hal_uart.o(i.UART_DMATransmitCplt)
    UART_DMATransmitCplt                     0x0800447f   Thumb Code    66  stm32f4xx_hal_uart.o(i.UART_DMATransmitCplt)
    i.UART_DMATxHalfCplt                     0x080044c0   Section        0  stm32f4xx_hal_uart.o(i.UART_DMATxHalfCplt)
    UART_DMATxHalfCplt                       0x080044c1   Thumb Code    10  stm32f4xx_hal_uart.o(i.UART_DMATxHalfCplt)
    i.UART_EndRxTransfer                     0x080044ca   Section        0  stm32f4xx_hal_uart.o(i.UART_EndRxTransfer)
    UART_EndRxTransfer                       0x080044cb   Thumb Code    78  stm32f4xx_hal_uart.o(i.UART_EndRxTransfer)
    i.UART_EndTxTransfer                     0x08004518   Section        0  stm32f4xx_hal_uart.o(i.UART_EndTxTransfer)
    UART_EndTxTransfer                       0x08004519   Thumb Code    28  stm32f4xx_hal_uart.o(i.UART_EndTxTransfer)
    i.UART_Receive_DMA_NoIT                  0x08004534   Section        0  usart.o(i.UART_Receive_DMA_NoIT)
    i.UART_Receive_IT                        0x080045aa   Section        0  stm32f4xx_hal_uart.o(i.UART_Receive_IT)
    UART_Receive_IT                          0x080045ab   Thumb Code   192  stm32f4xx_hal_uart.o(i.UART_Receive_IT)
    i.UART_SetConfig                         0x0800466c   Section        0  stm32f4xx_hal_uart.o(i.UART_SetConfig)
    UART_SetConfig                           0x0800466d   Thumb Code   258  stm32f4xx_hal_uart.o(i.UART_SetConfig)
    i.UART_Start_Receive_DMA                 0x08004778   Section        0  stm32f4xx_hal_uart.o(i.UART_Start_Receive_DMA)
    i.UART_WaitOnFlagUntilTimeout            0x0800480c   Section        0  stm32f4xx_hal_uart.o(i.UART_WaitOnFlagUntilTimeout)
    UART_WaitOnFlagUntilTimeout              0x0800480d   Thumb Code   118  stm32f4xx_hal_uart.o(i.UART_WaitOnFlagUntilTimeout)
    i.USART1_IRQHandler                      0x08004884   Section        0  stm32f4xx_it.o(i.USART1_IRQHandler)
    i.USART3_IRQHandler                      0x08004890   Section        0  stm32f4xx_it.o(i.USART3_IRQHandler)
    i.USART6_IRQHandler                      0x08004928   Section        0  stm32f4xx_it.o(i.USART6_IRQHandler)
    i.UsageFault_Handler                     0x08004934   Section        0  stm32f4xx_it.o(i.UsageFault_Handler)
    i.__NVIC_SetPriority                     0x08004936   Section        0  stm32f4xx_hal_cortex.o(i.__NVIC_SetPriority)
    __NVIC_SetPriority                       0x08004937   Thumb Code    32  stm32f4xx_hal_cortex.o(i.__NVIC_SetPriority)
    i.__scatterload_copy                     0x08004956   Section       14  handlers.o(i.__scatterload_copy)
    i.__scatterload_null                     0x08004964   Section        2  handlers.o(i.__scatterload_null)
    i.__scatterload_zeroinit                 0x08004966   Section       14  handlers.o(i.__scatterload_zeroinit)
    i.append_CRC16_check_sum                 0x08004974   Section        0  crc8_crc16.o(i.append_CRC16_check_sum)
    i.append_CRC8_check_sum                  0x0800499c   Section        0  crc8_crc16.o(i.append_CRC8_check_sum)
    i.booster                                0x080049b8   Section        0  ammo-booster.o(i.booster)
    i.chassis_move1                          0x08004ba4   Section        0  chassis.o(i.chassis_move1)
    i.dancang_1kai_0guan                     0x08004e18   Section        0  tim.o(i.dancang_1kai_0guan)
    i.fifo_s_get                             0x08004e30   Section        0  fifo.o(i.fifo_s_get)
    i.fifo_s_init                            0x08004e5c   Section        0  fifo.o(i.fifo_s_init)
    i.fifo_s_puts                            0x08004e72   Section        0  fifo.o(i.fifo_s_puts)
    i.fifo_s_used                            0x08004eee   Section        0  fifo.o(i.fifo_s_used)
    i.get_CRC16_check_sum                    0x08004ef4   Section        0  crc8_crc16.o(i.get_CRC16_check_sum)
    i.get_CRC8_check_sum                     0x08004f20   Section        0  crc8_crc16.o(i.get_CRC8_check_sum)
    i.get_moto_measure                       0x08004f3c   Section        0  bsp_can.o(i.get_moto_measure)
    i.key_task                               0x08004fa4   Section        0  key.o(i.key_task)
    i.main                                   0x08005040   Section        0  main.o(i.main)
    i.makeFreeRtosPriority                   0x08005148   Section        0  cmsis_os.o(i.makeFreeRtosPriority)
    makeFreeRtosPriority                     0x08005149   Thumb Code    12  cmsis_os.o(i.makeFreeRtosPriority)
    i.my_can_filter_init_recv_all            0x08005154   Section        0  bsp_can.o(i.my_can_filter_init_recv_all)
    i.osDelay                                0x080051b0   Section        0  cmsis_os.o(i.osDelay)
    i.osKernelStart                          0x080051c0   Section        0  cmsis_os.o(i.osKernelStart)
    i.osThreadCreate                         0x080051ca   Section        0  cmsis_os.o(i.osThreadCreate)
    i.pid_calculate                          0x08005228   Section        0  pid.o(i.pid_calculate)
    pid_calculate                            0x08005229   Thumb Code   482  pid.o(i.pid_calculate)
    i.pid_init                               0x08005410   Section        0  pid.o(i.pid_init)
    i.pid_param_init                         0x0800542c   Section        0  pid.o(i.pid_param_init)
    pid_param_init                           0x0800542d   Thumb Code    74  pid.o(i.pid_param_init)
    i.pid_reset                              0x0800547c   Section        0  pid.o(i.pid_reset)
    pid_reset                                0x0800547d   Thumb Code    12  pid.o(i.pid_reset)
    i.prvAddCurrentTaskToDelayedList         0x08005488   Section        0  tasks.o(i.prvAddCurrentTaskToDelayedList)
    prvAddCurrentTaskToDelayedList           0x08005489   Thumb Code   110  tasks.o(i.prvAddCurrentTaskToDelayedList)
    i.prvAddNewTaskToReadyList               0x08005500   Section        0  tasks.o(i.prvAddNewTaskToReadyList)
    prvAddNewTaskToReadyList                 0x08005501   Thumb Code   124  tasks.o(i.prvAddNewTaskToReadyList)
    i.prvCheckTasksWaitingTermination        0x08005588   Section        0  tasks.o(i.prvCheckTasksWaitingTermination)
    prvCheckTasksWaitingTermination          0x08005589   Thumb Code    56  tasks.o(i.prvCheckTasksWaitingTermination)
    i.prvDeleteTCB                           0x080055c8   Section        0  tasks.o(i.prvDeleteTCB)
    prvDeleteTCB                             0x080055c9   Thumb Code    64  tasks.o(i.prvDeleteTCB)
    i.prvHeapInit                            0x08005608   Section        0  heap_4.o(i.prvHeapInit)
    prvHeapInit                              0x08005609   Thumb Code    70  heap_4.o(i.prvHeapInit)
    i.prvIdleTask                            0x08005658   Section        0  tasks.o(i.prvIdleTask)
    prvIdleTask                              0x08005659   Thumb Code    30  tasks.o(i.prvIdleTask)
    i.prvInitialiseNewTask                   0x08005680   Section        0  tasks.o(i.prvInitialiseNewTask)
    prvInitialiseNewTask                     0x08005681   Thumb Code   126  tasks.o(i.prvInitialiseNewTask)
    i.prvInitialiseTaskLists                 0x08005700   Section        0  tasks.o(i.prvInitialiseTaskLists)
    prvInitialiseTaskLists                   0x08005701   Thumb Code    66  tasks.o(i.prvInitialiseTaskLists)
    i.prvInsertBlockIntoFreeList             0x08005760   Section        0  heap_4.o(i.prvInsertBlockIntoFreeList)
    prvInsertBlockIntoFreeList               0x08005761   Thumb Code    84  heap_4.o(i.prvInsertBlockIntoFreeList)
    i.prvResetNextTaskUnblockTime            0x080057bc   Section        0  tasks.o(i.prvResetNextTaskUnblockTime)
    prvResetNextTaskUnblockTime              0x080057bd   Thumb Code    30  tasks.o(i.prvResetNextTaskUnblockTime)
    i.prvTaskExitError                       0x080057e0   Section        0  port.o(i.prvTaskExitError)
    prvTaskExitError                         0x080057e1   Thumb Code    42  port.o(i.prvTaskExitError)
    i.pvPortMalloc                           0x08005810   Section        0  heap_4.o(i.pvPortMalloc)
    i.pwm_Init                               0x080058f8   Section        0  tim.o(i.pwm_Init)
    i.pxPortInitialiseStack                  0x0800592c   Section        0  port.o(i.pxPortInitialiseStack)
    i.referee_data_solve                     0x08005958   Section        0  rc.o(i.referee_data_solve)
    i.referee_unpack_fifo_data               0x08005a88   Section        0  rc.o(i.referee_unpack_fifo_data)
    i.set_moto_current                       0x08005b8c   Section        0  bsp_can.o(i.set_moto_current)
    i.ui_draw                                0x08005be8   Section        0  rc.o(i.ui_draw)
    i.usart3_init                            0x08005cf0   Section        0  bsp_usart.o(i.usart3_init)
    i.usart3_tx_dma_enable                   0x08005da8   Section        0  bsp_usart.o(i.usart3_tx_dma_enable)
    i.uxListRemove                           0x08005e0c   Section        0  list.o(i.uxListRemove)
    i.vApplicationGetIdleTaskMemory          0x08005e34   Section        0  freertos.o(i.vApplicationGetIdleTaskMemory)
    i.vListInitialise                        0x08005e48   Section        0  list.o(i.vListInitialise)
    i.vListInitialiseItem                    0x08005e5e   Section        0  list.o(i.vListInitialiseItem)
    i.vListInsert                            0x08005e64   Section        0  list.o(i.vListInsert)
    i.vListInsertEnd                         0x08005e9a   Section        0  list.o(i.vListInsertEnd)
    i.vPortEnterCritical                     0x08005eb4   Section        0  port.o(i.vPortEnterCritical)
    i.vPortExitCritical                      0x08005ef4   Section        0  port.o(i.vPortExitCritical)
    i.vPortFree                              0x08005f20   Section        0  heap_4.o(i.vPortFree)
    i.vPortSetupTimerInterrupt               0x08005f84   Section        0  port.o(i.vPortSetupTimerInterrupt)
    i.vTaskDelay                             0x08005fa8   Section        0  tasks.o(i.vTaskDelay)
    i.vTaskStartScheduler                    0x08005ff8   Section        0  tasks.o(i.vTaskStartScheduler)
    i.vTaskSuspendAll                        0x08006080   Section        0  tasks.o(i.vTaskSuspendAll)
    i.vTaskSwitchContext                     0x08006090   Section        0  tasks.o(i.vTaskSwitchContext)
    i.verify_CRC16_check_sum                 0x080060f0   Section        0  crc8_crc16.o(i.verify_CRC16_check_sum)
    i.verify_CRC8_check_sum                  0x0800612c   Section        0  crc8_crc16.o(i.verify_CRC8_check_sum)
    i.xPortStartScheduler                    0x08006154   Section        0  port.o(i.xPortStartScheduler)
    i.xTaskCreate                            0x08006258   Section        0  tasks.o(i.xTaskCreate)
    i.xTaskCreateStatic                      0x080062c4   Section        0  tasks.o(i.xTaskCreateStatic)
    i.xTaskIncrementTick                     0x08006324   Section        0  tasks.o(i.xTaskIncrementTick)
    i.xTaskResumeAll                         0x080063f8   Section        0  tasks.o(i.xTaskResumeAll)
    .constdata                               0x080064c4   Section      768  crc8_crc16.o(.constdata)
    .constdata                               0x080067c4   Section      168  freertos.o(.constdata)
    .constdata                               0x0800686c   Section        8  stm32f4xx_hal_dma.o(.constdata)
    flagBitshiftOffset                       0x0800686c   Data           8  stm32f4xx_hal_dma.o(.constdata)
    .constdata                               0x08006874   Section       16  system_stm32f4xx.o(.constdata)
    .constdata                               0x08006884   Section        8  system_stm32f4xx.o(.constdata)
    .conststring                             0x0800688c   Section       72  freertos.o(.conststring)
    .data                                    0x20000000   Section        8  bsp_can.o(.data)
    i                                        0x20000000   Data           1  bsp_can.o(.data)
    .data                                    0x20000008   Section        2  crc8_crc16.o(.data)
    .data                                    0x2000000c   Section       48  key.o(.data)
    .data                                    0x2000003c   Section        2  key.o(.data)
    .data                                    0x20000040   Section       12  remote_control.o(.data)
    .data                                    0x2000004c   Section       44  rc.o(.data)
    seq                                      0x2000004c   Data           1  rc.o(.data)
    seq                                      0x2000004d   Data           1  rc.o(.data)
    .data                                    0x20000078   Section       24  ammo-booster.o(.data)
    .data                                    0x20000090   Section       12  chassis.o(.data)
    .data                                    0x2000009c   Section       80  gimble.o(.data)
    err                                      0x200000d8   Data           4  gimble.o(.data)
    err1                                     0x200000dc   Data           4  gimble.o(.data)
    .data                                    0x200000ec   Section        4  main.o(.data)
    .data                                    0x200000f0   Section       88  freertos.o(.data)
    sq                                       0x200000f0   Data           1  freertos.o(.data)
    .data                                    0x20000148   Section        4  can.o(.data)
    HAL_RCC_CAN1_CLK_ENABLED                 0x20000148   Data           4  can.o(.data)
    .data                                    0x2000014c   Section        2  stm32f4xx_it.o(.data)
    this_time_rx_len                         0x2000014c   Data           2  stm32f4xx_it.o(.data)
    .data                                    0x20000150   Section       12  stm32f4xx_hal.o(.data)
    .data                                    0x2000015c   Section        4  system_stm32f4xx.o(.data)
    .data                                    0x20000160   Section       60  tasks.o(.data)
    uxDeletedTasksWaitingCleanUp             0x20000164   Data           4  tasks.o(.data)
    uxCurrentNumberOfTasks                   0x20000168   Data           4  tasks.o(.data)
    xTickCount                               0x2000016c   Data           4  tasks.o(.data)
    uxTopReadyPriority                       0x20000170   Data           4  tasks.o(.data)
    xSchedulerRunning                        0x20000174   Data           4  tasks.o(.data)
    xPendedTicks                             0x20000178   Data           4  tasks.o(.data)
    xYieldPending                            0x2000017c   Data           4  tasks.o(.data)
    xNumOfOverflows                          0x20000180   Data           4  tasks.o(.data)
    uxTaskNumber                             0x20000184   Data           4  tasks.o(.data)
    xNextTaskUnblockTime                     0x20000188   Data           4  tasks.o(.data)
    xIdleTaskHandle                          0x2000018c   Data           4  tasks.o(.data)
    uxSchedulerSuspended                     0x20000190   Data           4  tasks.o(.data)
    pxDelayedTaskList                        0x20000194   Data           4  tasks.o(.data)
    pxOverflowDelayedTaskList                0x20000198   Data           4  tasks.o(.data)
    .data                                    0x2000019c   Section       32  heap_4.o(.data)
    pxEnd                                    0x2000019c   Data           4  heap_4.o(.data)
    xFreeBytesRemaining                      0x200001a0   Data           4  heap_4.o(.data)
    xMinimumEverFreeBytesRemaining           0x200001a4   Data           4  heap_4.o(.data)
    xNumberOfSuccessfulAllocations           0x200001a8   Data           4  heap_4.o(.data)
    xNumberOfSuccessfulFrees                 0x200001ac   Data           4  heap_4.o(.data)
    xBlockAllocatedBit                       0x200001b0   Data           4  heap_4.o(.data)
    xStart                                   0x200001b4   Data           8  heap_4.o(.data)
    .data                                    0x200001bc   Section       12  port.o(.data)
    ucMaxSysCallPriority                     0x200001bc   Data           1  port.o(.data)
    uxCriticalNesting                        0x200001c0   Data           4  port.o(.data)
    ulMaxPRIGROUPValue                       0x200001c4   Data           4  port.o(.data)
    .bss                                     0x200001c8   Section      800  bsp_can.o(.bss)
    Tx1Message                               0x20000468   Data          28  bsp_can.o(.bss)
    Rx1Message                               0x20000484   Data          36  bsp_can.o(.bss)
    Tx2Message                               0x200004a8   Data          28  bsp_can.o(.bss)
    Rx2Message                               0x200004c4   Data          36  bsp_can.o(.bss)
    .bss                                     0x200004e8   Section       20  remote_control.o(.bss)
    .bss                                     0x200004fc   Section     1024  rc.o(.bss)
    .bss                                     0x200008fc   Section      293  rc.o(.bss)
    .bss                                     0x20000a21   Section     1024  rc.o(.bss)
    .bss                                     0x20000e24   Section       40  gimble.o(.bss)
    .bss                                     0x20000e4c   Section     1400  main.o(.bss)
    .bss                                     0x200013c4   Section     1080  main.o(.bss)
    .bss                                     0x200017fc   Section       16  main.o(.bss)
    .bss                                     0x2000180c   Section       20  main.o(.bss)
    .bss                                     0x20001820   Section      596  freertos.o(.bss)
    xIdleTaskTCBBuffer                       0x20001820   Data          84  freertos.o(.bss)
    xIdleStack                               0x20001874   Data         512  freertos.o(.bss)
    .bss                                     0x20001a74   Section      136  can.o(.bss)
    .bss                                     0x20001afc   Section      312  tim.o(.bss)
    .bss                                     0x20001c34   Section      100  usart.o(.bss)
    .bss                                     0x20001c98   Section      916  usart.o(.bss)
    .bss                                     0x2000202c   Section       14  stm32f4xx_it.o(.bss)
    .bss                                     0x2000203c   Section       72  stm32f4xx_hal_timebase_tim.o(.bss)
    .bss                                     0x20002084   Section      240  tasks.o(.bss)
    pxReadyTasksLists                        0x20002084   Data         140  tasks.o(.bss)
    xDelayedTaskList1                        0x20002110   Data          20  tasks.o(.bss)
    xDelayedTaskList2                        0x20002124   Data          20  tasks.o(.bss)
    xPendingReadyList                        0x20002138   Data          20  tasks.o(.bss)
    xTasksWaitingTermination                 0x2000214c   Data          20  tasks.o(.bss)
    xSuspendedTaskList                       0x20002160   Data          20  tasks.o(.bss)
    .bss                                     0x20002174   Section    15360  heap_4.o(.bss)
    ucHeap                                   0x20002174   Data       15360  heap_4.o(.bss)
    STACK                                    0x20005d78   Section     1024  startup_stm32f427xx.o(STACK)

    Global Symbols

    Symbol Name                              Value     Ov Type        Size  Object(Section)

    BuildAttributes$$THM_ISAv4$E$P$D$K$B$S$7EM$VFPi3$EXTD16$VFPS$VFMA$PE$A:L22UL41UL21$X:L11$S22US41US21$IEEE1$IW$USESV6$~STKCKD$USESV7$~SHL$OTIME$EBA8$MICROLIB$REQ8$PRES8$EABIv2 0x00000000   Number         0  anon$$obj.o ABSOLUTE
    __ARM_use_no_argv                        0x00000000   Number         0  main.o ABSOLUTE
    __cpp_initialize__aeabi_                  - Undefined Weak Reference
    __cxa_finalize                            - Undefined Weak Reference
    _clock_init                               - Undefined Weak Reference
    _microlib_exit                            - Undefined Weak Reference
    __Vectors_Size                           0x000001ac   Number         0  startup_stm32f427xx.o ABSOLUTE
    __Vectors                                0x08000000   Data           4  startup_stm32f427xx.o(RESET)
    __Vectors_End                            0x080001ac   Data           0  startup_stm32f427xx.o(RESET)
    __main                                   0x080001ad   Thumb Code     0  entry.o(.ARM.Collect$$$$00000000)
    _main_stk                                0x080001ad   Thumb Code     0  entry2.o(.ARM.Collect$$$$00000001)
    _main_scatterload                        0x080001b1   Thumb Code     0  entry5.o(.ARM.Collect$$$$00000004)
    __main_after_scatterload                 0x080001b5   Thumb Code     0  entry5.o(.ARM.Collect$$$$00000004)
    _main_clock                              0x080001b5   Thumb Code     0  entry7b.o(.ARM.Collect$$$$00000008)
    _main_cpp_init                           0x080001b5   Thumb Code     0  entry8b.o(.ARM.Collect$$$$0000000A)
    _main_init                               0x080001b5   Thumb Code     0  entry9a.o(.ARM.Collect$$$$0000000B)
    __rt_final_cpp                           0x080001bd   Thumb Code     0  entry10a.o(.ARM.Collect$$$$0000000D)
    __rt_final_exit                          0x080001bd   Thumb Code     0  entry11a.o(.ARM.Collect$$$$0000000F)
    SVC_Handler                              0x080001c1   Thumb Code    28  port.o(.emb_text)
    __asm___6_port_c_39a90d8d__prvStartFirstTask 0x080001e1   Thumb Code    36  port.o(.emb_text)
    __asm___6_port_c_39a90d8d__prvEnableVFP  0x08000209   Thumb Code    16  port.o(.emb_text)
    PendSV_Handler                           0x0800021d   Thumb Code    88  port.o(.emb_text)
    vPortGetIPSR                             0x08000279   Thumb Code     6  port.o(.emb_text)
    Reset_Handler                            0x08000281   Thumb Code     8  startup_stm32f427xx.o(.text)
    ADC_IRQHandler                           0x0800029b   Thumb Code     0  startup_stm32f427xx.o(.text)
    CAN1_RX1_IRQHandler                      0x0800029b   Thumb Code     0  startup_stm32f427xx.o(.text)
    CAN1_SCE_IRQHandler                      0x0800029b   Thumb Code     0  startup_stm32f427xx.o(.text)
    CAN2_RX1_IRQHandler                      0x0800029b   Thumb Code     0  startup_stm32f427xx.o(.text)
    CAN2_SCE_IRQHandler                      0x0800029b   Thumb Code     0  startup_stm32f427xx.o(.text)
    DCMI_IRQHandler                          0x0800029b   Thumb Code     0  startup_stm32f427xx.o(.text)
    DMA1_Stream0_IRQHandler                  0x0800029b   Thumb Code     0  startup_stm32f427xx.o(.text)
    DMA1_Stream2_IRQHandler                  0x0800029b   Thumb Code     0  startup_stm32f427xx.o(.text)
    DMA1_Stream4_IRQHandler                  0x0800029b   Thumb Code     0  startup_stm32f427xx.o(.text)
    DMA1_Stream5_IRQHandler                  0x0800029b   Thumb Code     0  startup_stm32f427xx.o(.text)
    DMA1_Stream7_IRQHandler                  0x0800029b   Thumb Code     0  startup_stm32f427xx.o(.text)
    DMA2D_IRQHandler                         0x0800029b   Thumb Code     0  startup_stm32f427xx.o(.text)
    DMA2_Stream0_IRQHandler                  0x0800029b   Thumb Code     0  startup_stm32f427xx.o(.text)
    DMA2_Stream3_IRQHandler                  0x0800029b   Thumb Code     0  startup_stm32f427xx.o(.text)
    DMA2_Stream4_IRQHandler                  0x0800029b   Thumb Code     0  startup_stm32f427xx.o(.text)
    DMA2_Stream5_IRQHandler                  0x0800029b   Thumb Code     0  startup_stm32f427xx.o(.text)
    ETH_IRQHandler                           0x0800029b   Thumb Code     0  startup_stm32f427xx.o(.text)
    ETH_WKUP_IRQHandler                      0x0800029b   Thumb Code     0  startup_stm32f427xx.o(.text)
    EXTI0_IRQHandler                         0x0800029b   Thumb Code     0  startup_stm32f427xx.o(.text)
    EXTI15_10_IRQHandler                     0x0800029b   Thumb Code     0  startup_stm32f427xx.o(.text)
    EXTI1_IRQHandler                         0x0800029b   Thumb Code     0  startup_stm32f427xx.o(.text)
    EXTI2_IRQHandler                         0x0800029b   Thumb Code     0  startup_stm32f427xx.o(.text)
    EXTI3_IRQHandler                         0x0800029b   Thumb Code     0  startup_stm32f427xx.o(.text)
    EXTI4_IRQHandler                         0x0800029b   Thumb Code     0  startup_stm32f427xx.o(.text)
    EXTI9_5_IRQHandler                       0x0800029b   Thumb Code     0  startup_stm32f427xx.o(.text)
    FLASH_IRQHandler                         0x0800029b   Thumb Code     0  startup_stm32f427xx.o(.text)
    FMC_IRQHandler                           0x0800029b   Thumb Code     0  startup_stm32f427xx.o(.text)
    FPU_IRQHandler                           0x0800029b   Thumb Code     0  startup_stm32f427xx.o(.text)
    HASH_RNG_IRQHandler                      0x0800029b   Thumb Code     0  startup_stm32f427xx.o(.text)
    I2C1_ER_IRQHandler                       0x0800029b   Thumb Code     0  startup_stm32f427xx.o(.text)
    I2C1_EV_IRQHandler                       0x0800029b   Thumb Code     0  startup_stm32f427xx.o(.text)
    I2C2_ER_IRQHandler                       0x0800029b   Thumb Code     0  startup_stm32f427xx.o(.text)
    I2C2_EV_IRQHandler                       0x0800029b   Thumb Code     0  startup_stm32f427xx.o(.text)
    I2C3_ER_IRQHandler                       0x0800029b   Thumb Code     0  startup_stm32f427xx.o(.text)
    I2C3_EV_IRQHandler                       0x0800029b   Thumb Code     0  startup_stm32f427xx.o(.text)
    OTG_FS_IRQHandler                        0x0800029b   Thumb Code     0  startup_stm32f427xx.o(.text)
    OTG_FS_WKUP_IRQHandler                   0x0800029b   Thumb Code     0  startup_stm32f427xx.o(.text)
    OTG_HS_EP1_IN_IRQHandler                 0x0800029b   Thumb Code     0  startup_stm32f427xx.o(.text)
    OTG_HS_EP1_OUT_IRQHandler                0x0800029b   Thumb Code     0  startup_stm32f427xx.o(.text)
    OTG_HS_IRQHandler                        0x0800029b   Thumb Code     0  startup_stm32f427xx.o(.text)
    OTG_HS_WKUP_IRQHandler                   0x0800029b   Thumb Code     0  startup_stm32f427xx.o(.text)
    PVD_IRQHandler                           0x0800029b   Thumb Code     0  startup_stm32f427xx.o(.text)
    RCC_IRQHandler                           0x0800029b   Thumb Code     0  startup_stm32f427xx.o(.text)
    RTC_Alarm_IRQHandler                     0x0800029b   Thumb Code     0  startup_stm32f427xx.o(.text)
    RTC_WKUP_IRQHandler                      0x0800029b   Thumb Code     0  startup_stm32f427xx.o(.text)
    SAI1_IRQHandler                          0x0800029b   Thumb Code     0  startup_stm32f427xx.o(.text)
    SDIO_IRQHandler                          0x0800029b   Thumb Code     0  startup_stm32f427xx.o(.text)
    SPI1_IRQHandler                          0x0800029b   Thumb Code     0  startup_stm32f427xx.o(.text)
    SPI2_IRQHandler                          0x0800029b   Thumb Code     0  startup_stm32f427xx.o(.text)
    SPI3_IRQHandler                          0x0800029b   Thumb Code     0  startup_stm32f427xx.o(.text)
    SPI4_IRQHandler                          0x0800029b   Thumb Code     0  startup_stm32f427xx.o(.text)
    SPI5_IRQHandler                          0x0800029b   Thumb Code     0  startup_stm32f427xx.o(.text)
    SPI6_IRQHandler                          0x0800029b   Thumb Code     0  startup_stm32f427xx.o(.text)
    TAMP_STAMP_IRQHandler                    0x0800029b   Thumb Code     0  startup_stm32f427xx.o(.text)
    TIM1_BRK_TIM9_IRQHandler                 0x0800029b   Thumb Code     0  startup_stm32f427xx.o(.text)
    TIM1_CC_IRQHandler                       0x0800029b   Thumb Code     0  startup_stm32f427xx.o(.text)
    TIM1_TRG_COM_TIM11_IRQHandler            0x0800029b   Thumb Code     0  startup_stm32f427xx.o(.text)
    TIM1_UP_TIM10_IRQHandler                 0x0800029b   Thumb Code     0  startup_stm32f427xx.o(.text)
    TIM2_IRQHandler                          0x0800029b   Thumb Code     0  startup_stm32f427xx.o(.text)
    TIM3_IRQHandler                          0x0800029b   Thumb Code     0  startup_stm32f427xx.o(.text)
    TIM4_IRQHandler                          0x0800029b   Thumb Code     0  startup_stm32f427xx.o(.text)
    TIM5_IRQHandler                          0x0800029b   Thumb Code     0  startup_stm32f427xx.o(.text)
    TIM7_IRQHandler                          0x0800029b   Thumb Code     0  startup_stm32f427xx.o(.text)
    TIM8_BRK_TIM12_IRQHandler                0x0800029b   Thumb Code     0  startup_stm32f427xx.o(.text)
    TIM8_CC_IRQHandler                       0x0800029b   Thumb Code     0  startup_stm32f427xx.o(.text)
    TIM8_TRG_COM_TIM14_IRQHandler            0x0800029b   Thumb Code     0  startup_stm32f427xx.o(.text)
    TIM8_UP_TIM13_IRQHandler                 0x0800029b   Thumb Code     0  startup_stm32f427xx.o(.text)
    UART4_IRQHandler                         0x0800029b   Thumb Code     0  startup_stm32f427xx.o(.text)
    UART5_IRQHandler                         0x0800029b   Thumb Code     0  startup_stm32f427xx.o(.text)
    UART7_IRQHandler                         0x0800029b   Thumb Code     0  startup_stm32f427xx.o(.text)
    USART2_IRQHandler                        0x0800029b   Thumb Code     0  startup_stm32f427xx.o(.text)
    WWDG_IRQHandler                          0x0800029b   Thumb Code     0  startup_stm32f427xx.o(.text)
    __aeabi_uldivmod                         0x080002a5   Thumb Code    98  uldiv.o(.text)
    __aeabi_memcpy                           0x08000307   Thumb Code    36  memcpya.o(.text)
    __aeabi_memcpy4                          0x08000307   Thumb Code     0  memcpya.o(.text)
    __aeabi_memcpy8                          0x08000307   Thumb Code     0  memcpya.o(.text)
    __aeabi_memset                           0x0800032b   Thumb Code    14  memseta.o(.text)
    __aeabi_memset4                          0x0800032b   Thumb Code     0  memseta.o(.text)
    __aeabi_memset8                          0x0800032b   Thumb Code     0  memseta.o(.text)
    __aeabi_memclr                           0x08000339   Thumb Code     4  memseta.o(.text)
    __aeabi_memclr4                          0x08000339   Thumb Code     0  memseta.o(.text)
    __aeabi_memclr8                          0x08000339   Thumb Code     0  memseta.o(.text)
    memset                                   0x0800033d   Thumb Code    18  memseta.o(.text)
    __aeabi_llsl                             0x0800034f   Thumb Code    30  llshl.o(.text)
    _ll_shift_l                              0x0800034f   Thumb Code     0  llshl.o(.text)
    __aeabi_llsr                             0x0800036d   Thumb Code    32  llushr.o(.text)
    _ll_ushift_r                             0x0800036d   Thumb Code     0  llushr.o(.text)
    __scatterload                            0x0800038d   Thumb Code    28  init.o(.text)
    __scatterload_rt2                        0x0800038d   Thumb Code     0  init.o(.text)
    __decompress                             0x080003b1   Thumb Code     0  __dczerorl2.o(.text)
    __decompress1                            0x080003b1   Thumb Code    86  __dczerorl2.o(.text)
    BusFault_Handler                         0x08000407   Thumb Code     2  stm32f4xx_it.o(i.BusFault_Handler)
    CAN1_RX0_IRQHandler                      0x08000409   Thumb Code     6  stm32f4xx_it.o(i.CAN1_RX0_IRQHandler)
    CAN1_TX_IRQHandler                       0x08000415   Thumb Code     6  stm32f4xx_it.o(i.CAN1_TX_IRQHandler)
    CAN2_RX0_IRQHandler                      0x08000421   Thumb Code     6  stm32f4xx_it.o(i.CAN2_RX0_IRQHandler)
    CAN2_TX_IRQHandler                       0x0800042d   Thumb Code     6  stm32f4xx_it.o(i.CAN2_TX_IRQHandler)
    Callback_RC_Handle                       0x0800055d   Thumb Code   150  remote_control.o(i.Callback_RC_Handle)
    DMA1_Stream1_IRQHandler                  0x080005fd   Thumb Code     6  stm32f4xx_it.o(i.DMA1_Stream1_IRQHandler)
    DMA1_Stream3_IRQHandler                  0x08000609   Thumb Code     6  stm32f4xx_it.o(i.DMA1_Stream3_IRQHandler)
    DMA1_Stream6_IRQHandler                  0x08000615   Thumb Code     6  stm32f4xx_it.o(i.DMA1_Stream6_IRQHandler)
    DMA2_Stream1_IRQHandler                  0x08000621   Thumb Code     6  stm32f4xx_it.o(i.DMA2_Stream1_IRQHandler)
    DMA2_Stream2_IRQHandler                  0x0800062d   Thumb Code     6  stm32f4xx_it.o(i.DMA2_Stream2_IRQHandler)
    DMA2_Stream6_IRQHandler                  0x08000639   Thumb Code     6  stm32f4xx_it.o(i.DMA2_Stream6_IRQHandler)
    DMA2_Stream7_IRQHandler                  0x08000645   Thumb Code     6  stm32f4xx_it.o(i.DMA2_Stream7_IRQHandler)
    DebugMon_Handler                         0x080006f5   Thumb Code     2  stm32f4xx_it.o(i.DebugMon_Handler)
    Error_Handler                            0x080006f7   Thumb Code     2  main.o(i.Error_Handler)
    Gimble_move_X                            0x080006f9   Thumb Code   382  gimble.o(i.Gimble_move_X)
    Gimble_move_Y                            0x080008b5   Thumb Code   206  gimble.o(i.Gimble_move_Y)
    HAL_CAN_ConfigFilter                     0x080009b1   Thumb Code   244  stm32f4xx_hal_can.o(i.HAL_CAN_ConfigFilter)
    HAL_CAN_ErrorCallback                    0x08000aa9   Thumb Code     2  stm32f4xx_hal_can.o(i.HAL_CAN_ErrorCallback)
    HAL_CAN_IRQHandler                       0x08000aad   Thumb Code   548  stm32f4xx_hal_can.o(i.HAL_CAN_IRQHandler)
    HAL_CAN_Init                             0x08000ce1   Thumb Code   332  stm32f4xx_hal_can.o(i.HAL_CAN_Init)
    HAL_CAN_MspInit                          0x08000e2d   Thumb Code   256  can.o(i.HAL_CAN_MspInit)
    HAL_CAN_Receive_IT                       0x08000f45   Thumb Code   184  stm32f4xx_hal_can.o(i.HAL_CAN_Receive_IT)
    HAL_CAN_RxCpltCallback                   0x08000ffd   Thumb Code   174  bsp_can.o(i.HAL_CAN_RxCpltCallback)
    HAL_CAN_Transmit                         0x080010c5   Thumb Code   428  stm32f4xx_hal_can.o(i.HAL_CAN_Transmit)
    HAL_CAN_TxCpltCallback                   0x0800127d   Thumb Code     2  stm32f4xx_hal_can.o(i.HAL_CAN_TxCpltCallback)
    HAL_DMA_Abort                            0x0800127f   Thumb Code   146  stm32f4xx_hal_dma.o(i.HAL_DMA_Abort)
    HAL_DMA_Abort_IT                         0x08001311   Thumb Code    36  stm32f4xx_hal_dma.o(i.HAL_DMA_Abort_IT)
    HAL_DMA_IRQHandler                       0x08001335   Thumb Code   412  stm32f4xx_hal_dma.o(i.HAL_DMA_IRQHandler)
    HAL_DMA_Init                             0x080014d5   Thumb Code   206  stm32f4xx_hal_dma.o(i.HAL_DMA_Init)
    HAL_DMA_Start                            0x080015a9   Thumb Code    70  stm32f4xx_hal_dma.o(i.HAL_DMA_Start)
    HAL_DMA_Start_IT                         0x080015ef   Thumb Code   110  stm32f4xx_hal_dma.o(i.HAL_DMA_Start_IT)
    HAL_Delay                                0x0800165d   Thumb Code    32  stm32f4xx_hal.o(i.HAL_Delay)
    HAL_GPIO_Init                            0x08001681   Thumb Code   438  stm32f4xx_hal_gpio.o(i.HAL_GPIO_Init)
    HAL_GPIO_TogglePin                       0x0800186d   Thumb Code    16  stm32f4xx_hal_gpio.o(i.HAL_GPIO_TogglePin)
    HAL_GPIO_WritePin                        0x0800187d   Thumb Code    10  stm32f4xx_hal_gpio.o(i.HAL_GPIO_WritePin)
    HAL_GetTick                              0x08001889   Thumb Code     6  stm32f4xx_hal.o(i.HAL_GetTick)
    HAL_IncTick                              0x08001895   Thumb Code    12  stm32f4xx_hal.o(i.HAL_IncTick)
    HAL_Init                                 0x080018a5   Thumb Code    48  stm32f4xx_hal.o(i.HAL_Init)
    HAL_InitTick                             0x080018d9   Thumb Code   100  stm32f4xx_hal_timebase_tim.o(i.HAL_InitTick)
    HAL_MspInit                              0x0800194d   Thumb Code    52  stm32f4xx_hal_msp.o(i.HAL_MspInit)
    HAL_NVIC_EnableIRQ                       0x08001985   Thumb Code    26  stm32f4xx_hal_cortex.o(i.HAL_NVIC_EnableIRQ)
    HAL_NVIC_SetPriority                     0x080019a1   Thumb Code    60  stm32f4xx_hal_cortex.o(i.HAL_NVIC_SetPriority)
    HAL_NVIC_SetPriorityGrouping             0x080019e1   Thumb Code    26  stm32f4xx_hal_cortex.o(i.HAL_NVIC_SetPriorityGrouping)
    HAL_RCC_ClockConfig                      0x08001a05   Thumb Code   288  stm32f4xx_hal_rcc.o(i.HAL_RCC_ClockConfig)
    HAL_RCC_GetClockConfig                   0x08001b39   Thumb Code    54  stm32f4xx_hal_rcc.o(i.HAL_RCC_GetClockConfig)
    HAL_RCC_GetPCLK1Freq                     0x08001b79   Thumb Code    20  stm32f4xx_hal_rcc.o(i.HAL_RCC_GetPCLK1Freq)
    HAL_RCC_GetPCLK2Freq                     0x08001b99   Thumb Code    20  stm32f4xx_hal_rcc.o(i.HAL_RCC_GetPCLK2Freq)
    HAL_RCC_GetSysClockFreq                  0x08001bb9   Thumb Code    88  stm32f4xx_hal_rcc.o(i.HAL_RCC_GetSysClockFreq)
    HAL_RCC_OscConfig                        0x08001c1d   Thumb Code   836  stm32f4xx_hal_rcc.o(i.HAL_RCC_OscConfig)
    HAL_TIMEx_BreakCallback                  0x08001f75   Thumb Code     2  stm32f4xx_hal_tim_ex.o(i.HAL_TIMEx_BreakCallback)
    HAL_TIMEx_CommutCallback                 0x08001f77   Thumb Code     2  stm32f4xx_hal_tim_ex.o(i.HAL_TIMEx_CommutCallback)
    HAL_TIMEx_ConfigBreakDeadTime            0x08001f79   Thumb Code    84  stm32f4xx_hal_tim_ex.o(i.HAL_TIMEx_ConfigBreakDeadTime)
    HAL_TIMEx_MasterConfigSynchronization    0x08001fcd   Thumb Code   116  stm32f4xx_hal_tim_ex.o(i.HAL_TIMEx_MasterConfigSynchronization)
    HAL_TIM_Base_Init                        0x0800205d   Thumb Code    90  stm32f4xx_hal_tim.o(i.HAL_TIM_Base_Init)
    HAL_TIM_Base_MspInit                     0x080020b9   Thumb Code    56  tim.o(i.HAL_TIM_Base_MspInit)
    HAL_TIM_Base_Start_IT                    0x080020f9   Thumb Code   100  stm32f4xx_hal_tim.o(i.HAL_TIM_Base_Start_IT)
    HAL_TIM_ConfigClockSource                0x08002179   Thumb Code   220  stm32f4xx_hal_tim.o(i.HAL_TIM_ConfigClockSource)
    HAL_TIM_IC_CaptureCallback               0x08002255   Thumb Code    80  remote_control.o(i.HAL_TIM_IC_CaptureCallback)
    HAL_TIM_IC_ConfigChannel                 0x080022b5   Thumb Code   288  stm32f4xx_hal_tim.o(i.HAL_TIM_IC_ConfigChannel)
    HAL_TIM_IC_Init                          0x080023d5   Thumb Code    90  stm32f4xx_hal_tim.o(i.HAL_TIM_IC_Init)
    HAL_TIM_IC_MspInit                       0x08002431   Thumb Code   184  tim.o(i.HAL_TIM_IC_MspInit)
    HAL_TIM_IRQHandler                       0x08002501   Thumb Code   358  stm32f4xx_hal_tim.o(i.HAL_TIM_IRQHandler)
    HAL_TIM_MspPostInit                      0x08002669   Thumb Code   148  tim.o(i.HAL_TIM_MspPostInit)
    HAL_TIM_OC_DelayElapsedCallback          0x08002711   Thumb Code     2  stm32f4xx_hal_tim.o(i.HAL_TIM_OC_DelayElapsedCallback)
    HAL_TIM_PWM_ConfigChannel                0x08002713   Thumb Code   204  stm32f4xx_hal_tim.o(i.HAL_TIM_PWM_ConfigChannel)
    HAL_TIM_PWM_Init                         0x080027df   Thumb Code    90  stm32f4xx_hal_tim.o(i.HAL_TIM_PWM_Init)
    HAL_TIM_PWM_MspInit                      0x08002839   Thumb Code     2  stm32f4xx_hal_tim.o(i.HAL_TIM_PWM_MspInit)
    HAL_TIM_PWM_PulseFinishedCallback        0x0800283b   Thumb Code     2  stm32f4xx_hal_tim.o(i.HAL_TIM_PWM_PulseFinishedCallback)
    HAL_TIM_PWM_Start                        0x0800283d   Thumb Code   178  stm32f4xx_hal_tim.o(i.HAL_TIM_PWM_Start)
    HAL_TIM_PeriodElapsedCallback            0x0800290d   Thumb Code    14  main.o(i.HAL_TIM_PeriodElapsedCallback)
    HAL_TIM_TriggerCallback                  0x08002921   Thumb Code     2  stm32f4xx_hal_tim.o(i.HAL_TIM_TriggerCallback)
    HAL_UARTEx_RxEventCallback               0x08002923   Thumb Code     2  stm32f4xx_hal_uart.o(i.HAL_UARTEx_RxEventCallback)
    HAL_UART_DMAStop                         0x08002925   Thumb Code   112  stm32f4xx_hal_uart.o(i.HAL_UART_DMAStop)
    HAL_UART_ErrorCallback                   0x08002995   Thumb Code     2  stm32f4xx_hal_uart.o(i.HAL_UART_ErrorCallback)
    HAL_UART_IDLE_IRQHandler                 0x08002999   Thumb Code   210  usart.o(i.HAL_UART_IDLE_IRQHandler)
    HAL_UART_IRQHandler                      0x08002a79   Thumb Code   610  stm32f4xx_hal_uart.o(i.HAL_UART_IRQHandler)
    HAL_UART_Init                            0x08002ce1   Thumb Code    98  stm32f4xx_hal_uart.o(i.HAL_UART_Init)
    HAL_UART_MspInit                         0x08002d45   Thumb Code   738  usart.o(i.HAL_UART_MspInit)
    HAL_UART_Receive_DMA                     0x08003065   Thumb Code    42  stm32f4xx_hal_uart.o(i.HAL_UART_Receive_DMA)
    HAL_UART_Receive_IT_IDLE                 0x0800308f   Thumb Code    18  usart.o(i.HAL_UART_Receive_IT_IDLE)
    HAL_UART_RxCpltCallback                  0x080030a1   Thumb Code     2  stm32f4xx_hal_uart.o(i.HAL_UART_RxCpltCallback)
    HAL_UART_RxHalfCpltCallback              0x080030a3   Thumb Code     2  stm32f4xx_hal_uart.o(i.HAL_UART_RxHalfCpltCallback)
    HAL_UART_Transmit                        0x080030a5   Thumb Code   176  stm32f4xx_hal_uart.o(i.HAL_UART_Transmit)
    HAL_UART_Transmit_DMA                    0x08003155   Thumb Code   128  stm32f4xx_hal_uart.o(i.HAL_UART_Transmit_DMA)
    HAL_UART_TxCpltCallback                  0x080031e1   Thumb Code     2  stm32f4xx_hal_uart.o(i.HAL_UART_TxCpltCallback)
    HAL_UART_TxHalfCpltCallback              0x080031e3   Thumb Code     2  stm32f4xx_hal_uart.o(i.HAL_UART_TxHalfCpltCallback)
    HardFault_Handler                        0x080031e5   Thumb Code     2  stm32f4xx_it.o(i.HardFault_Handler)
    MX_CAN1_Init                             0x080031e9   Thumb Code    62  can.o(i.MX_CAN1_Init)
    MX_CAN2_Init                             0x08003231   Thumb Code    62  can.o(i.MX_CAN2_Init)
    MX_DMA_Init                              0x08003279   Thumb Code   152  dma.o(i.MX_DMA_Init)
    MX_FREERTOS_Init                         0x08003315   Thumb Code   140  freertos.o(i.MX_FREERTOS_Init)
    MX_GPIO_Init                             0x080033a9   Thumb Code   266  gpio.o(i.MX_GPIO_Init)
    MX_TIM1_Init                             0x080034c9   Thumb Code   162  tim.o(i.MX_TIM1_Init)
    MX_TIM2_Init                             0x08003575   Thumb Code   178  tim.o(i.MX_TIM2_Init)
    MX_TIM8_Init                             0x0800362d   Thumb Code   194  tim.o(i.MX_TIM8_Init)
    MX_UART7_Init                            0x080036f9   Thumb Code    48  usart.o(i.MX_UART7_Init)
    MX_UART8_Init                            0x08003731   Thumb Code    48  usart.o(i.MX_UART8_Init)
    MX_USART1_UART_Init                      0x08003769   Thumb Code    50  usart.o(i.MX_USART1_UART_Init)
    MX_USART3_UART_Init                      0x080037a9   Thumb Code    48  usart.o(i.MX_USART3_UART_Init)
    MX_USART6_UART_Init                      0x080037e1   Thumb Code    48  usart.o(i.MX_USART6_UART_Init)
    MemManage_Handler                        0x08003819   Thumb Code     2  stm32f4xx_it.o(i.MemManage_Handler)
    NMI_Handler                              0x0800381b   Thumb Code     2  stm32f4xx_it.o(i.NMI_Handler)
    PID                                      0x0800381d   Thumb Code   158  gimble.o(i.PID)
    PID1                                     0x080038cd   Thumb Code   158  gimble.o(i.PID1)
    PID_init                                 0x0800397d   Thumb Code   312  pid.o(i.PID_init)
    StartDefaultTask                         0x08003ad1   Thumb Code    38  freertos.o(i.StartDefaultTask)
    StartTask02                              0x08003b05   Thumb Code    38  freertos.o(i.StartTask02)
    StartTask03                              0x08003b39   Thumb Code    20  freertos.o(i.StartTask03)
    StartTask04                              0x08003b51   Thumb Code    34  freertos.o(i.StartTask04)
    StartTask05                              0x08003b79   Thumb Code    94  freertos.o(i.StartTask05)
    StartTask06                              0x08003be1   Thumb Code   532  freertos.o(i.StartTask06)
    SysTick_Handler                          0x08003e19   Thumb Code    38  port.o(i.SysTick_Handler)
    SystemClock_Config                       0x08003e45   Thumb Code   136  main.o(i.SystemClock_Config)
    SystemInit                               0x08003ed5   Thumb Code    66  system_stm32f4xx.o(i.SystemInit)
    TIM6_DAC_IRQHandler                      0x08003f29   Thumb Code     6  stm32f4xx_it.o(i.TIM6_DAC_IRQHandler)
    TIM_Base_SetConfig                       0x08003f35   Thumb Code   156  stm32f4xx_hal_tim.o(i.TIM_Base_SetConfig)
    TIM_CCxChannelCmd                        0x08003ffd   Thumb Code    26  stm32f4xx_hal_tim.o(i.TIM_CCxChannelCmd)
    TIM_ETR_SetConfig                        0x08004017   Thumb Code    20  stm32f4xx_hal_tim.o(i.TIM_ETR_SetConfig)
    TIM_OC2_SetConfig                        0x0800409d   Thumb Code    98  stm32f4xx_hal_tim.o(i.TIM_OC2_SetConfig)
    TIM_TI1_SetConfig                        0x080041e5   Thumb Code   100  stm32f4xx_hal_tim.o(i.TIM_TI1_SetConfig)
    UART8_IRQHandler                         0x080042c1   Thumb Code   174  stm32f4xx_it.o(i.UART8_IRQHandler)
    UART_Receive_DMA_NoIT                    0x08004535   Thumb Code   118  usart.o(i.UART_Receive_DMA_NoIT)
    UART_Start_Receive_DMA                   0x08004779   Thumb Code   134  stm32f4xx_hal_uart.o(i.UART_Start_Receive_DMA)
    USART1_IRQHandler                        0x08004885   Thumb Code     6  stm32f4xx_it.o(i.USART1_IRQHandler)
    USART3_IRQHandler                        0x08004891   Thumb Code   126  stm32f4xx_it.o(i.USART3_IRQHandler)
    USART6_IRQHandler                        0x08004929   Thumb Code     6  stm32f4xx_it.o(i.USART6_IRQHandler)
    UsageFault_Handler                       0x08004935   Thumb Code     2  stm32f4xx_it.o(i.UsageFault_Handler)
    __scatterload_copy                       0x08004957   Thumb Code    14  handlers.o(i.__scatterload_copy)
    __scatterload_null                       0x08004965   Thumb Code     2  handlers.o(i.__scatterload_null)
    __scatterload_zeroinit                   0x08004967   Thumb Code    14  handlers.o(i.__scatterload_zeroinit)
    append_CRC16_check_sum                   0x08004975   Thumb Code    36  crc8_crc16.o(i.append_CRC16_check_sum)
    append_CRC8_check_sum                    0x0800499d   Thumb Code    28  crc8_crc16.o(i.append_CRC8_check_sum)
    booster                                  0x080049b9   Thumb Code   450  ammo-booster.o(i.booster)
    chassis_move1                            0x08004ba5   Thumb Code   562  chassis.o(i.chassis_move1)
    dancang_1kai_0guan                       0x08004e19   Thumb Code    18  tim.o(i.dancang_1kai_0guan)
    fifo_s_get                               0x08004e31   Thumb Code    44  fifo.o(i.fifo_s_get)
    fifo_s_init                              0x08004e5d   Thumb Code    22  fifo.o(i.fifo_s_init)
    fifo_s_puts                              0x08004e73   Thumb Code   124  fifo.o(i.fifo_s_puts)
    fifo_s_used                              0x08004eef   Thumb Code     4  fifo.o(i.fifo_s_used)
    get_CRC16_check_sum                      0x08004ef5   Thumb Code    38  crc8_crc16.o(i.get_CRC16_check_sum)
    get_CRC8_check_sum                       0x08004f21   Thumb Code    22  crc8_crc16.o(i.get_CRC8_check_sum)
    get_moto_measure                         0x08004f3d   Thumb Code    98  bsp_can.o(i.get_moto_measure)
    key_task                                 0x08004fa5   Thumb Code   146  key.o(i.key_task)
    main                                     0x08005041   Thumb Code   214  main.o(i.main)
    my_can_filter_init_recv_all              0x08005155   Thumb Code    80  bsp_can.o(i.my_can_filter_init_recv_all)
    osDelay                                  0x080051b1   Thumb Code    16  cmsis_os.o(i.osDelay)
    osKernelStart                            0x080051c1   Thumb Code    10  cmsis_os.o(i.osKernelStart)
    osThreadCreate                           0x080051cb   Thumb Code    92  cmsis_os.o(i.osThreadCreate)
    pid_init                                 0x08005411   Thumb Code    14  pid.o(i.pid_init)
    pvPortMalloc                             0x08005811   Thumb Code   224  heap_4.o(i.pvPortMalloc)
    pwm_Init                                 0x080058f9   Thumb Code    46  tim.o(i.pwm_Init)
    pxPortInitialiseStack                    0x0800592d   Thumb Code    38  port.o(i.pxPortInitialiseStack)
    referee_data_solve                       0x08005959   Thumb Code   296  rc.o(i.referee_data_solve)
    referee_unpack_fifo_data                 0x08005a89   Thumb Code   254  rc.o(i.referee_unpack_fifo_data)
    set_moto_current                         0x08005b8d   Thumb Code    90  bsp_can.o(i.set_moto_current)
    ui_draw                                  0x08005be9   Thumb Code   252  rc.o(i.ui_draw)
    usart3_init                              0x08005cf1   Thumb Code   160  bsp_usart.o(i.usart3_init)
    usart3_tx_dma_enable                     0x08005da9   Thumb Code    88  bsp_usart.o(i.usart3_tx_dma_enable)
    uxListRemove                             0x08005e0d   Thumb Code    38  list.o(i.uxListRemove)
    vApplicationGetIdleTaskMemory            0x08005e35   Thumb Code    16  freertos.o(i.vApplicationGetIdleTaskMemory)
    vListInitialise                          0x08005e49   Thumb Code    22  list.o(i.vListInitialise)
    vListInitialiseItem                      0x08005e5f   Thumb Code     6  list.o(i.vListInitialiseItem)
    vListInsert                              0x08005e65   Thumb Code    54  list.o(i.vListInsert)
    vListInsertEnd                           0x08005e9b   Thumb Code    24  list.o(i.vListInsertEnd)
    vPortEnterCritical                       0x08005eb5   Thumb Code    54  port.o(i.vPortEnterCritical)
    vPortExitCritical                        0x08005ef5   Thumb Code    38  port.o(i.vPortExitCritical)
    vPortFree                                0x08005f21   Thumb Code    94  heap_4.o(i.vPortFree)
    vPortSetupTimerInterrupt                 0x08005f85   Thumb Code    32  port.o(i.vPortSetupTimerInterrupt)
    vTaskDelay                               0x08005fa9   Thumb Code    70  tasks.o(i.vTaskDelay)
    vTaskStartScheduler                      0x08005ff9   Thumb Code   120  tasks.o(i.vTaskStartScheduler)
    vTaskSuspendAll                          0x08006081   Thumb Code    10  tasks.o(i.vTaskSuspendAll)
    vTaskSwitchContext                       0x08006091   Thumb Code    86  tasks.o(i.vTaskSwitchContext)
    verify_CRC16_check_sum                   0x080060f1   Thumb Code    54  crc8_crc16.o(i.verify_CRC16_check_sum)
    verify_CRC8_check_sum                    0x0800612d   Thumb Code    38  crc8_crc16.o(i.verify_CRC8_check_sum)
    xPortStartScheduler                      0x08006155   Thumb Code   232  port.o(i.xPortStartScheduler)
    xTaskCreate                              0x08006259   Thumb Code   108  tasks.o(i.xTaskCreate)
    xTaskCreateStatic                        0x080062c5   Thumb Code    96  tasks.o(i.xTaskCreateStatic)
    xTaskIncrementTick                       0x08006325   Thumb Code   202  tasks.o(i.xTaskIncrementTick)
    xTaskResumeAll                           0x080063f9   Thumb Code   190  tasks.o(i.xTaskResumeAll)
    CRC8_table                               0x080064c4   Data         256  crc8_crc16.o(.constdata)
    wCRC_table                               0x080065c4   Data         512  crc8_crc16.o(.constdata)
    AHBPrescTable                            0x08006874   Data          16  system_stm32f4xx.o(.constdata)
    APBPrescTable                            0x08006884   Data           8  system_stm32f4xx.o(.constdata)
    Region$$Table$$Base                      0x080068d4   Number         0  anon$$obj.o(Region$$Table)
    Region$$Table$$Limit                     0x080068f4   Number         0  anon$$obj.o(Region$$Table)
    FlashTimer                               0x20000004   Data           4  bsp_can.o(.data)
    CRC16_INIT                               0x20000008   Data           2  crc8_crc16.o(.data)
    switch_L                                 0x2000000c   Data           1  key.o(.data)
    switch_R                                 0x2000000d   Data           1  key.o(.data)
    key_W                                    0x2000000e   Data           2  key.o(.data)
    key_S                                    0x20000010   Data           2  key.o(.data)
    key_A                                    0x20000012   Data           2  key.o(.data)
    key_D                                    0x20000014   Data           2  key.o(.data)
    key_SHIFT                                0x20000016   Data           2  key.o(.data)
    key_CTRL                                 0x20000018   Data           2  key.o(.data)
    key_Q                                    0x2000001a   Data           2  key.o(.data)
    key_E                                    0x2000001c   Data           2  key.o(.data)
    key_R                                    0x2000001e   Data           2  key.o(.data)
    key_F                                    0x20000020   Data           2  key.o(.data)
    key_G                                    0x20000022   Data           2  key.o(.data)
    key_Z                                    0x20000024   Data           2  key.o(.data)
    key_X                                    0x20000026   Data           2  key.o(.data)
    key_C                                    0x20000028   Data           2  key.o(.data)
    key_V                                    0x2000002a   Data           2  key.o(.data)
    mouseX                                   0x2000002c   Data           4  key.o(.data)
    mouseY                                   0x20000030   Data           4  key.o(.data)
    left                                     0x20000034   Data           4  key.o(.data)
    right                                    0x20000038   Data           4  key.o(.data)
    SPEED                                    0x2000003c   Data           2  key.o(.data)
    HighTime                                 0x20000040   Data           2  remote_control.o(.data)
    Latest_Remote_Control_Pack_Time          0x20000044   Data           4  remote_control.o(.data)
    LED_Flash_Timer_remote_control           0x20000048   Data           4  remote_control.o(.data)
    game_result                              0x2000004e   Data           1  rc.o(.data)
    buff_musk_t                              0x2000004f   Data           1  rc.o(.data)
    robot_hurt_t                             0x20000050   Data           1  rc.o(.data)
    referee_warning_t                        0x20000051   Data           2  rc.o(.data)
    robot_energy_t                           0x20000053   Data           2  rc.o(.data)
    supply_projectile_booking_t              0x20000055   Data           3  rc.o(.data)
    field_event                              0x20000058   Data           4  rc.o(.data)
    supply_projectile_action_t               0x2000005c   Data           4  rc.o(.data)
    referee_receive_header                   0x20000060   Data           5  rc.o(.data)
    bullet_remaining_t                       0x20000065   Data           6  rc.o(.data)
    student_interactive_data_t               0x2000006b   Data           6  rc.o(.data)
    shoot_data_t                             0x20000071   Data           7  rc.o(.data)
    Speed_Fire                               0x20000078   Data           4  ammo-booster.o(.data)
    controlleft1                             0x2000007c   Data           4  ammo-booster.o(.data)
    controlright1                            0x20000080   Data           4  ammo-booster.o(.data)
    left_mouse                               0x20000084   Data           4  ammo-booster.o(.data)
    right_mouse                              0x20000088   Data           4  ammo-booster.o(.data)
    SPEED_VAL                                0x2000008c   Data           4  ammo-booster.o(.data)
    controlleft                              0x20000090   Data           4  chassis.o(.data)
    controlright                             0x20000094   Data           4  chassis.o(.data)
    check                                    0x20000098   Data           4  chassis.o(.data)
    Xnum                                     0x2000009c   Data           1  gimble.o(.data)
    Xnum1                                    0x2000009d   Data           1  gimble.o(.data)
    n                                        0x200000a0   Data           4  gimble.o(.data)
    in_XP                                    0x200000a4   Data           4  gimble.o(.data)
    in_XI                                    0x200000a8   Data           4  gimble.o(.data)
    in_XD                                    0x200000ac   Data           4  gimble.o(.data)
    in_XP1                                   0x200000b0   Data           4  gimble.o(.data)
    in_XI1                                   0x200000b4   Data           4  gimble.o(.data)
    in_XD1                                   0x200000b8   Data           4  gimble.o(.data)
    max_angle                                0x200000bc   Data           4  gimble.o(.data)
    Xp                                       0x200000c0   Data           4  gimble.o(.data)
    Xd                                       0x200000c4   Data           4  gimble.o(.data)
    Xp1                                      0x200000c8   Data           4  gimble.o(.data)
    Xd1                                      0x200000cc   Data           4  gimble.o(.data)
    mouseX_speed                             0x200000d0   Data           4  gimble.o(.data)
    mouseY_speed                             0x200000d4   Data           4  gimble.o(.data)
    left1                                    0x200000e0   Data           4  gimble.o(.data)
    right1                                   0x200000e4   Data           4  gimble.o(.data)
    NUM                                      0x200000e8   Data           4  gimble.o(.data)
    TIM_COUNT                                0x200000ec   Data           4  main.o(.data)
    chassisflag                              0x200000f4   Data           4  freertos.o(.data)
    chassis_flag                             0x200000f8   Data           4  freertos.o(.data)
    gimbleflag                               0x200000fc   Data           4  freertos.o(.data)
    gimble_flag                              0x20000100   Data           4  freertos.o(.data)
    boosterflag                              0x20000104   Data           4  freertos.o(.data)
    booster_flag                             0x20000108   Data           4  freertos.o(.data)
    level_int                                0x2000010c   Data           4  freertos.o(.data)
    i1                                       0x20000110   Data           4  freertos.o(.data)
    i2                                       0x20000114   Data           4  freertos.o(.data)
    i3                                       0x20000118   Data           4  freertos.o(.data)
    i4                                       0x2000011c   Data           4  freertos.o(.data)
    i5                                       0x20000120   Data           4  freertos.o(.data)
    chassispower                             0x20000124   Data           4  freertos.o(.data)
    gimblepower                              0x20000128   Data           4  freertos.o(.data)
    boosterpower                             0x2000012c   Data           4  freertos.o(.data)
    defaultTaskHandle                        0x20000130   Data           4  freertos.o(.data)
    myTask02Handle                           0x20000134   Data           4  freertos.o(.data)
    myTask03Handle                           0x20000138   Data           4  freertos.o(.data)
    myTask04Handle                           0x2000013c   Data           4  freertos.o(.data)
    myTask05Handle                           0x20000140   Data           4  freertos.o(.data)
    myTask06Handle                           0x20000144   Data           4  freertos.o(.data)
    uwTickFreq                               0x20000150   Data           1  stm32f4xx_hal.o(.data)
    uwTickPrio                               0x20000154   Data           4  stm32f4xx_hal.o(.data)
    uwTick                                   0x20000158   Data           4  stm32f4xx_hal.o(.data)
    SystemCoreClock                          0x2000015c   Data           4  system_stm32f4xx.o(.data)
    pxCurrentTCB                             0x20000160   Data           4  tasks.o(.data)
    moto_chassis                             0x200001c8   Data         672  bsp_can.o(.bss)
    remote_control                           0x200004e8   Data          20  remote_control.o(.bss)
    usart3_buf                               0x200004fc   Data        1024  rc.o(.bss)
    referee_fifo                             0x200008fc   Data          24  rc.o(.bss)
    referee_unpack_obj                       0x20000914   Data         137  rc.o(.bss)
    game_state                               0x2000099d   Data          11  rc.o(.bss)
    game_robot_HP_t                          0x200009a8   Data          32  rc.o(.bss)
    robot_state                              0x200009c8   Data          27  rc.o(.bss)
    power_heat_data_t                        0x200009e3   Data          16  rc.o(.bss)
    game_robot_pos_t                         0x200009f3   Data          16  rc.o(.bss)
    ui_data                                  0x20000a03   Data          30  rc.o(.bss)
    referee_fifo_buf                         0x20000a21   Data        1024  rc.o(.bss)
    text                                     0x20000e24   Data          40  gimble.o(.bss)
    motor_pid                                0x20000e4c   Data        1400  main.o(.bss)
    ch                                       0x200013c4   Data          56  main.o(.bss)
    buffer                                   0x200013fc   Data        1024  main.o(.bss)
    XYZ                                      0x200017fc   Data          16  main.o(.bss)
    DATA_BUFFER                              0x2000180c   Data          20  main.o(.bss)
    hcan1                                    0x20001a74   Data          68  can.o(.bss)
    hcan2                                    0x20001ab8   Data          68  can.o(.bss)
    htim1                                    0x20001afc   Data          72  tim.o(.bss)
    htim2                                    0x20001b44   Data          72  tim.o(.bss)
    htim8                                    0x20001b8c   Data          72  tim.o(.bss)
    hdma_tim1_ch1_ch2_ch3                    0x20001bd4   Data          96  tim.o(.bss)
    UART_Buffer                              0x20001c34   Data         100  usart.o(.bss)
    huart7                                   0x20001c98   Data          68  usart.o(.bss)
    huart8                                   0x20001cdc   Data          68  usart.o(.bss)
    huart1                                   0x20001d20   Data          68  usart.o(.bss)
    huart3                                   0x20001d64   Data          68  usart.o(.bss)
    huart6                                   0x20001da8   Data          68  usart.o(.bss)
    hdma_uart8_rx                            0x20001dec   Data          96  usart.o(.bss)
    hdma_usart1_rx                           0x20001e4c   Data          96  usart.o(.bss)
    hdma_usart3_rx                           0x20001eac   Data          96  usart.o(.bss)
    hdma_usart3_tx                           0x20001f0c   Data          96  usart.o(.bss)
    hdma_usart6_rx                           0x20001f6c   Data          96  usart.o(.bss)
    hdma_usart6_tx                           0x20001fcc   Data          96  usart.o(.bss)
    DATA_BUFFER2                             0x2000202c   Data          14  stm32f4xx_it.o(.bss)
    htim6                                    0x2000203c   Data          72  stm32f4xx_hal_timebase_tim.o(.bss)
    __initial_sp                             0x20006178   Data           0  startup_stm32f427xx.o(STACK)



==============================================================================

Memory Map of the image

  Image Entry point : 0x080001ad

  Load Region LR_IROM1 (Base: 0x08000000, Size: 0x00006abc, Max: 0x00200000, ABSOLUTE, COMPRESSED[0x0000692c])

    Execution Region ER_IROM1 (Base: 0x08000000, Size: 0x000068f4, Max: 0x00200000, ABSOLUTE)

    Base Addr    Size         Type   Attr      Idx    E Section Name        Object

    0x08000000   0x000001ac   Data   RO            3    RESET               startup_stm32f427xx.o
    0x080001ac   0x00000000   Code   RO         5728  * .ARM.Collect$$$$00000000  mc_w.l(entry.o)
    0x080001ac   0x00000004   Code   RO         5769    .ARM.Collect$$$$00000001  mc_w.l(entry2.o)
    0x080001b0   0x00000004   Code   RO         5772    .ARM.Collect$$$$00000004  mc_w.l(entry5.o)
    0x080001b4   0x00000000   Code   RO         5774    .ARM.Collect$$$$00000008  mc_w.l(entry7b.o)
    0x080001b4   0x00000000   Code   RO         5776    .ARM.Collect$$$$0000000A  mc_w.l(entry8b.o)
    0x080001b4   0x00000008   Code   RO         5777    .ARM.Collect$$$$0000000B  mc_w.l(entry9a.o)
    0x080001bc   0x00000000   Code   RO         5779    .ARM.Collect$$$$0000000D  mc_w.l(entry10a.o)
    0x080001bc   0x00000000   Code   RO         5781    .ARM.Collect$$$$0000000F  mc_w.l(entry11a.o)
    0x080001bc   0x00000004   Code   RO         5770    .ARM.Collect$$$$00002712  mc_w.l(entry2.o)
    0x080001c0   0x000000be   Code   RO         5651    .emb_text           port.o
    0x0800027e   0x00000002   PAD
    0x08000280   0x00000024   Code   RO            4    .text               startup_stm32f427xx.o
    0x080002a4   0x00000062   Code   RO         5731    .text               mc_w.l(uldiv.o)
    0x08000306   0x00000024   Code   RO         5733    .text               mc_w.l(memcpya.o)
    0x0800032a   0x00000024   Code   RO         5737    .text               mc_w.l(memseta.o)
    0x0800034e   0x0000001e   Code   RO         5783    .text               mc_w.l(llshl.o)
    0x0800036c   0x00000020   Code   RO         5785    .text               mc_w.l(llushr.o)
    0x0800038c   0x00000024   Code   RO         5789    .text               mc_w.l(init.o)
    0x080003b0   0x00000056   Code   RO         5799    .text               mc_w.l(__dczerorl2.o)
    0x08000406   0x00000002   Code   RO         1471    i.BusFault_Handler  stm32f4xx_it.o
    0x08000408   0x0000000c   Code   RO         1472    i.CAN1_RX0_IRQHandler  stm32f4xx_it.o
    0x08000414   0x0000000c   Code   RO         1473    i.CAN1_TX_IRQHandler  stm32f4xx_it.o
    0x08000420   0x0000000c   Code   RO         1474    i.CAN2_RX0_IRQHandler  stm32f4xx_it.o
    0x0800042c   0x0000000c   Code   RO         1475    i.CAN2_TX_IRQHandler  stm32f4xx_it.o
    0x08000438   0x00000124   Code   RO         1706    i.CAN_Receive_IT    stm32f4xx_hal_can.o
    0x0800055c   0x000000a0   Code   RO          643    i.Callback_RC_Handle  remote_control.o
    0x080005fc   0x0000000c   Code   RO         1476    i.DMA1_Stream1_IRQHandler  stm32f4xx_it.o
    0x08000608   0x0000000c   Code   RO         1477    i.DMA1_Stream3_IRQHandler  stm32f4xx_it.o
    0x08000614   0x0000000c   Code   RO         1478    i.DMA1_Stream6_IRQHandler  stm32f4xx_it.o
    0x08000620   0x0000000c   Code   RO         1479    i.DMA2_Stream1_IRQHandler  stm32f4xx_it.o
    0x0800062c   0x0000000c   Code   RO         1480    i.DMA2_Stream2_IRQHandler  stm32f4xx_it.o
    0x08000638   0x0000000c   Code   RO         1481    i.DMA2_Stream6_IRQHandler  stm32f4xx_it.o
    0x08000644   0x0000000c   Code   RO         1482    i.DMA2_Stream7_IRQHandler  stm32f4xx_it.o
    0x08000650   0x00000028   Code   RO         2342    i.DMA_CalcBaseAndBitshift  stm32f4xx_hal_dma.o
    0x08000678   0x00000054   Code   RO         2343    i.DMA_CheckFifoParam  stm32f4xx_hal_dma.o
    0x080006cc   0x00000028   Code   RO         2344    i.DMA_SetConfig     stm32f4xx_hal_dma.o
    0x080006f4   0x00000002   Code   RO         1483    i.DebugMon_Handler  stm32f4xx_it.o
    0x080006f6   0x00000002   Code   RO          993    i.Error_Handler     main.o
    0x080006f8   0x000001bc   Code   RO          874    i.Gimble_move_X     gimble.o
    0x080008b4   0x000000fc   Code   RO          875    i.Gimble_move_Y     gimble.o
    0x080009b0   0x000000f8   Code   RO         1707    i.HAL_CAN_ConfigFilter  stm32f4xx_hal_can.o
    0x08000aa8   0x00000002   Code   RO         1709    i.HAL_CAN_ErrorCallback  stm32f4xx_hal_can.o
    0x08000aaa   0x00000002   PAD
    0x08000aac   0x00000234   Code   RO         1712    i.HAL_CAN_IRQHandler  stm32f4xx_hal_can.o
    0x08000ce0   0x0000014c   Code   RO         1713    i.HAL_CAN_Init      stm32f4xx_hal_can.o
    0x08000e2c   0x00000118   Code   RO         1208    i.HAL_CAN_MspInit   can.o
    0x08000f44   0x000000b8   Code   RO         1717    i.HAL_CAN_Receive_IT  stm32f4xx_hal_can.o
    0x08000ffc   0x000000c8   Code   RO           13    i.HAL_CAN_RxCpltCallback  bsp_can.o
    0x080010c4   0x000001b8   Code   RO         1720    i.HAL_CAN_Transmit  stm32f4xx_hal_can.o
    0x0800127c   0x00000002   Code   RO         1722    i.HAL_CAN_TxCpltCallback  stm32f4xx_hal_can.o
    0x0800127e   0x00000092   Code   RO         2345    i.HAL_DMA_Abort     stm32f4xx_hal_dma.o
    0x08001310   0x00000024   Code   RO         2346    i.HAL_DMA_Abort_IT  stm32f4xx_hal_dma.o
    0x08001334   0x000001a0   Code   RO         2350    i.HAL_DMA_IRQHandler  stm32f4xx_hal_dma.o
    0x080014d4   0x000000d4   Code   RO         2351    i.HAL_DMA_Init      stm32f4xx_hal_dma.o
    0x080015a8   0x00000046   Code   RO         2354    i.HAL_DMA_Start     stm32f4xx_hal_dma.o
    0x080015ee   0x0000006e   Code   RO         2355    i.HAL_DMA_Start_IT  stm32f4xx_hal_dma.o
    0x0800165c   0x00000024   Code   RO         2782    i.HAL_Delay         stm32f4xx_hal.o
    0x08001680   0x000001ec   Code   RO         2238    i.HAL_GPIO_Init     stm32f4xx_hal_gpio.o
    0x0800186c   0x00000010   Code   RO         2241    i.HAL_GPIO_TogglePin  stm32f4xx_hal_gpio.o
    0x0800187c   0x0000000a   Code   RO         2242    i.HAL_GPIO_WritePin  stm32f4xx_hal_gpio.o
    0x08001886   0x00000002   PAD
    0x08001888   0x0000000c   Code   RO         2790    i.HAL_GetTick       stm32f4xx_hal.o
    0x08001894   0x00000010   Code   RO         2796    i.HAL_IncTick       stm32f4xx_hal.o
    0x080018a4   0x00000034   Code   RO         2797    i.HAL_Init          stm32f4xx_hal.o
    0x080018d8   0x00000074   Code   RO         1667    i.HAL_InitTick      stm32f4xx_hal_timebase_tim.o
    0x0800194c   0x00000038   Code   RO         1643    i.HAL_MspInit       stm32f4xx_hal_msp.o
    0x08001984   0x0000001a   Code   RO         2645    i.HAL_NVIC_EnableIRQ  stm32f4xx_hal_cortex.o
    0x0800199e   0x00000002   PAD
    0x080019a0   0x00000040   Code   RO         2651    i.HAL_NVIC_SetPriority  stm32f4xx_hal_cortex.o
    0x080019e0   0x00000024   Code   RO         2652    i.HAL_NVIC_SetPriorityGrouping  stm32f4xx_hal_cortex.o
    0x08001a04   0x00000134   Code   RO         1832    i.HAL_RCC_ClockConfig  stm32f4xx_hal_rcc.o
    0x08001b38   0x00000040   Code   RO         1836    i.HAL_RCC_GetClockConfig  stm32f4xx_hal_rcc.o
    0x08001b78   0x00000020   Code   RO         1839    i.HAL_RCC_GetPCLK1Freq  stm32f4xx_hal_rcc.o
    0x08001b98   0x00000020   Code   RO         1840    i.HAL_RCC_GetPCLK2Freq  stm32f4xx_hal_rcc.o
    0x08001bb8   0x00000064   Code   RO         1841    i.HAL_RCC_GetSysClockFreq  stm32f4xx_hal_rcc.o
    0x08001c1c   0x00000358   Code   RO         1844    i.HAL_RCC_OscConfig  stm32f4xx_hal_rcc.o
    0x08001f74   0x00000002   Code   RO         3751    i.HAL_TIMEx_BreakCallback  stm32f4xx_hal_tim_ex.o
    0x08001f76   0x00000002   Code   RO         3752    i.HAL_TIMEx_CommutCallback  stm32f4xx_hal_tim_ex.o
    0x08001f78   0x00000054   Code   RO         3754    i.HAL_TIMEx_ConfigBreakDeadTime  stm32f4xx_hal_tim_ex.o
    0x08001fcc   0x00000090   Code   RO         3770    i.HAL_TIMEx_MasterConfigSynchronization  stm32f4xx_hal_tim_ex.o
    0x0800205c   0x0000005a   Code   RO         3047    i.HAL_TIM_Base_Init  stm32f4xx_hal_tim.o
    0x080020b6   0x00000002   PAD
    0x080020b8   0x00000040   Code   RO         1288    i.HAL_TIM_Base_MspInit  tim.o
    0x080020f8   0x00000080   Code   RO         3052    i.HAL_TIM_Base_Start_IT  stm32f4xx_hal_tim.o
    0x08002178   0x000000dc   Code   RO         3056    i.HAL_TIM_ConfigClockSource  stm32f4xx_hal_tim.o
    0x08002254   0x00000060   Code   RO          644    i.HAL_TIM_IC_CaptureCallback  remote_control.o
    0x080022b4   0x00000120   Code   RO         3083    i.HAL_TIM_IC_ConfigChannel  stm32f4xx_hal_tim.o
    0x080023d4   0x0000005a   Code   RO         3086    i.HAL_TIM_IC_Init   stm32f4xx_hal_tim.o
    0x0800242e   0x00000002   PAD
    0x08002430   0x000000d0   Code   RO         1290    i.HAL_TIM_IC_MspInit  tim.o
    0x08002500   0x00000166   Code   RO         3095    i.HAL_TIM_IRQHandler  stm32f4xx_hal_tim.o
    0x08002666   0x00000002   PAD
    0x08002668   0x000000a8   Code   RO         1291    i.HAL_TIM_MspPostInit  tim.o
    0x08002710   0x00000002   Code   RO         3098    i.HAL_TIM_OC_DelayElapsedCallback  stm32f4xx_hal_tim.o
    0x08002712   0x000000cc   Code   RO         3119    i.HAL_TIM_PWM_ConfigChannel  stm32f4xx_hal_tim.o
    0x080027de   0x0000005a   Code   RO         3122    i.HAL_TIM_PWM_Init  stm32f4xx_hal_tim.o
    0x08002838   0x00000002   Code   RO         3124    i.HAL_TIM_PWM_MspInit  stm32f4xx_hal_tim.o
    0x0800283a   0x00000002   Code   RO         3125    i.HAL_TIM_PWM_PulseFinishedCallback  stm32f4xx_hal_tim.o
    0x0800283c   0x000000d0   Code   RO         3127    i.HAL_TIM_PWM_Start  stm32f4xx_hal_tim.o
    0x0800290c   0x00000014   Code   RO          994    i.HAL_TIM_PeriodElapsedCallback  main.o
    0x08002920   0x00000002   Code   RO         3138    i.HAL_TIM_TriggerCallback  stm32f4xx_hal_tim.o
    0x08002922   0x00000002   Code   RO         4029    i.HAL_UARTEx_RxEventCallback  stm32f4xx_hal_uart.o
    0x08002924   0x00000070   Code   RO         4041    i.HAL_UART_DMAStop  stm32f4xx_hal_uart.o
    0x08002994   0x00000002   Code   RO         4043    i.HAL_UART_ErrorCallback  stm32f4xx_hal_uart.o
    0x08002996   0x00000002   PAD
    0x08002998   0x000000e0   Code   RO         1386    i.HAL_UART_IDLE_IRQHandler  usart.o
    0x08002a78   0x00000268   Code   RO         4046    i.HAL_UART_IRQHandler  stm32f4xx_hal_uart.o
    0x08002ce0   0x00000062   Code   RO         4047    i.HAL_UART_Init     stm32f4xx_hal_uart.o
    0x08002d42   0x00000002   PAD
    0x08002d44   0x00000320   Code   RO         1388    i.HAL_UART_MspInit  usart.o
    0x08003064   0x0000002a   Code   RO         4051    i.HAL_UART_Receive_DMA  stm32f4xx_hal_uart.o
    0x0800308e   0x00000012   Code   RO         1389    i.HAL_UART_Receive_IT_IDLE  usart.o
    0x080030a0   0x00000002   Code   RO         4053    i.HAL_UART_RxCpltCallback  stm32f4xx_hal_uart.o
    0x080030a2   0x00000002   Code   RO         4054    i.HAL_UART_RxHalfCpltCallback  stm32f4xx_hal_uart.o
    0x080030a4   0x000000b0   Code   RO         4055    i.HAL_UART_Transmit  stm32f4xx_hal_uart.o
    0x08003154   0x0000008c   Code   RO         4056    i.HAL_UART_Transmit_DMA  stm32f4xx_hal_uart.o
    0x080031e0   0x00000002   Code   RO         4058    i.HAL_UART_TxCpltCallback  stm32f4xx_hal_uart.o
    0x080031e2   0x00000002   Code   RO         4059    i.HAL_UART_TxHalfCpltCallback  stm32f4xx_hal_uart.o
    0x080031e4   0x00000002   Code   RO         1484    i.HardFault_Handler  stm32f4xx_it.o
    0x080031e6   0x00000002   PAD
    0x080031e8   0x00000048   Code   RO         1209    i.MX_CAN1_Init      can.o
    0x08003230   0x00000048   Code   RO         1210    i.MX_CAN2_Init      can.o
    0x08003278   0x0000009c   Code   RO         1260    i.MX_DMA_Init       dma.o
    0x08003314   0x00000094   Code   RO         1089    i.MX_FREERTOS_Init  freertos.o
    0x080033a8   0x00000120   Code   RO         1065    i.MX_GPIO_Init      gpio.o
    0x080034c8   0x000000ac   Code   RO         1292    i.MX_TIM1_Init      tim.o
    0x08003574   0x000000b8   Code   RO         1293    i.MX_TIM2_Init      tim.o
    0x0800362c   0x000000cc   Code   RO         1294    i.MX_TIM8_Init      tim.o
    0x080036f8   0x00000038   Code   RO         1390    i.MX_UART7_Init     usart.o
    0x08003730   0x00000038   Code   RO         1391    i.MX_UART8_Init     usart.o
    0x08003768   0x00000040   Code   RO         1392    i.MX_USART1_UART_Init  usart.o
    0x080037a8   0x00000038   Code   RO         1393    i.MX_USART3_UART_Init  usart.o
    0x080037e0   0x00000038   Code   RO         1394    i.MX_USART6_UART_Init  usart.o
    0x08003818   0x00000002   Code   RO         1485    i.MemManage_Handler  stm32f4xx_it.o
    0x0800381a   0x00000002   Code   RO         1486    i.NMI_Handler       stm32f4xx_it.o
    0x0800381c   0x000000b0   Code   RO          876    i.PID               gimble.o
    0x080038cc   0x000000b0   Code   RO          877    i.PID1              gimble.o
    0x0800397c   0x00000154   Code   RO          202    i.PID_init          pid.o
    0x08003ad0   0x00000034   Code   RO         1090    i.StartDefaultTask  freertos.o
    0x08003b04   0x00000034   Code   RO         1091    i.StartTask02       freertos.o
    0x08003b38   0x00000018   Code   RO         1092    i.StartTask03       freertos.o
    0x08003b50   0x00000028   Code   RO         1093    i.StartTask04       freertos.o
    0x08003b78   0x00000068   Code   RO         1094    i.StartTask05       freertos.o
    0x08003be0   0x00000238   Code   RO         1095    i.StartTask06       freertos.o
    0x08003e18   0x0000002c   Code   RO         5652    i.SysTick_Handler   port.o
    0x08003e44   0x00000090   Code   RO          995    i.SystemClock_Config  main.o
    0x08003ed4   0x00000054   Code   RO         4376    i.SystemInit        system_stm32f4xx.o
    0x08003f28   0x0000000c   Code   RO         1487    i.TIM6_DAC_IRQHandler  stm32f4xx_it.o
    0x08003f34   0x000000c8   Code   RO         3140    i.TIM_Base_SetConfig  stm32f4xx_hal_tim.o
    0x08003ffc   0x0000001a   Code   RO         3141    i.TIM_CCxChannelCmd  stm32f4xx_hal_tim.o
    0x08004016   0x00000014   Code   RO         3151    i.TIM_ETR_SetConfig  stm32f4xx_hal_tim.o
    0x0800402a   0x00000010   Code   RO         3152    i.TIM_ITRx_SetConfig  stm32f4xx_hal_tim.o
    0x0800403a   0x00000002   PAD
    0x0800403c   0x00000060   Code   RO         3153    i.TIM_OC1_SetConfig  stm32f4xx_hal_tim.o
    0x0800409c   0x0000006c   Code   RO         3154    i.TIM_OC2_SetConfig  stm32f4xx_hal_tim.o
    0x08004108   0x00000068   Code   RO         3155    i.TIM_OC3_SetConfig  stm32f4xx_hal_tim.o
    0x08004170   0x00000050   Code   RO         3156    i.TIM_OC4_SetConfig  stm32f4xx_hal_tim.o
    0x080041c0   0x00000022   Code   RO         3158    i.TIM_TI1_ConfigInputStage  stm32f4xx_hal_tim.o
    0x080041e2   0x00000002   PAD
    0x080041e4   0x00000080   Code   RO         3159    i.TIM_TI1_SetConfig  stm32f4xx_hal_tim.o
    0x08004264   0x00000024   Code   RO         3160    i.TIM_TI2_ConfigInputStage  stm32f4xx_hal_tim.o
    0x08004288   0x00000036   Code   RO         3161    i.TIM_TI2_SetConfig  stm32f4xx_hal_tim.o
    0x080042be   0x00000002   PAD
    0x080042c0   0x000000c8   Code   RO         1488    i.UART8_IRQHandler  stm32f4xx_it.o
    0x08004388   0x00000010   Code   RO         4060    i.UART_DMAAbortOnError  stm32f4xx_hal_uart.o
    0x08004398   0x0000004a   Code   RO         4061    i.UART_DMAError     stm32f4xx_hal_uart.o
    0x080043e2   0x00000082   Code   RO         4062    i.UART_DMAReceiveCplt  stm32f4xx_hal_uart.o
    0x08004464   0x0000001a   Code   RO         4064    i.UART_DMARxHalfCplt  stm32f4xx_hal_uart.o
    0x0800447e   0x00000042   Code   RO         4066    i.UART_DMATransmitCplt  stm32f4xx_hal_uart.o
    0x080044c0   0x0000000a   Code   RO         4068    i.UART_DMATxHalfCplt  stm32f4xx_hal_uart.o
    0x080044ca   0x0000004e   Code   RO         4070    i.UART_EndRxTransfer  stm32f4xx_hal_uart.o
    0x08004518   0x0000001c   Code   RO         4071    i.UART_EndTxTransfer  stm32f4xx_hal_uart.o
    0x08004534   0x00000076   Code   RO         1395    i.UART_Receive_DMA_NoIT  usart.o
    0x080045aa   0x000000c0   Code   RO         4072    i.UART_Receive_IT   stm32f4xx_hal_uart.o
    0x0800466a   0x00000002   PAD
    0x0800466c   0x0000010c   Code   RO         4073    i.UART_SetConfig    stm32f4xx_hal_uart.o
    0x08004778   0x00000094   Code   RO         4074    i.UART_Start_Receive_DMA  stm32f4xx_hal_uart.o
    0x0800480c   0x00000076   Code   RO         4076    i.UART_WaitOnFlagUntilTimeout  stm32f4xx_hal_uart.o
    0x08004882   0x00000002   PAD
    0x08004884   0x0000000c   Code   RO         1489    i.USART1_IRQHandler  stm32f4xx_it.o
    0x08004890   0x00000098   Code   RO         1490    i.USART3_IRQHandler  stm32f4xx_it.o
    0x08004928   0x0000000c   Code   RO         1491    i.USART6_IRQHandler  stm32f4xx_it.o
    0x08004934   0x00000002   Code   RO         1492    i.UsageFault_Handler  stm32f4xx_it.o
    0x08004936   0x00000020   Code   RO         2658    i.__NVIC_SetPriority  stm32f4xx_hal_cortex.o
    0x08004956   0x0000000e   Code   RO         5793    i.__scatterload_copy  mc_w.l(handlers.o)
    0x08004964   0x00000002   Code   RO         5794    i.__scatterload_null  mc_w.l(handlers.o)
    0x08004966   0x0000000e   Code   RO         5795    i.__scatterload_zeroinit  mc_w.l(handlers.o)
    0x08004974   0x00000028   Code   RO          313    i.append_CRC16_check_sum  crc8_crc16.o
    0x0800499c   0x0000001c   Code   RO          314    i.append_CRC8_check_sum  crc8_crc16.o
    0x080049b8   0x000001ec   Code   RO          742    i.booster           ammo-booster.o
    0x08004ba4   0x00000274   Code   RO          789    i.chassis_move1     chassis.o
    0x08004e18   0x00000018   Code   RO         1295    i.dancang_1kai_0guan  tim.o
    0x08004e30   0x0000002c   Code   RO          391    i.fifo_s_get        fifo.o
    0x08004e5c   0x00000016   Code   RO          394    i.fifo_s_init       fifo.o
    0x08004e72   0x0000007c   Code   RO          400    i.fifo_s_puts       fifo.o
    0x08004eee   0x00000004   Code   RO          402    i.fifo_s_used       fifo.o
    0x08004ef2   0x00000002   PAD
    0x08004ef4   0x0000002c   Code   RO          315    i.get_CRC16_check_sum  crc8_crc16.o
    0x08004f20   0x0000001c   Code   RO          316    i.get_CRC8_check_sum  crc8_crc16.o
    0x08004f3c   0x00000068   Code   RO           14    i.get_moto_measure  bsp_can.o
    0x08004fa4   0x0000009c   Code   RO          590    i.key_task          key.o
    0x08005040   0x00000108   Code   RO          996    i.main              main.o
    0x08005148   0x0000000c   Code   RO         5217    i.makeFreeRtosPriority  cmsis_os.o
    0x08005154   0x0000005c   Code   RO           17    i.my_can_filter_init_recv_all  bsp_can.o
    0x080051b0   0x00000010   Code   RO         5219    i.osDelay           cmsis_os.o
    0x080051c0   0x0000000a   Code   RO         5222    i.osKernelStart     cmsis_os.o
    0x080051ca   0x0000005c   Code   RO         5256    i.osThreadCreate    cmsis_os.o
    0x08005226   0x00000002   PAD
    0x08005228   0x000001e8   Code   RO          205    i.pid_calculate     pid.o
    0x08005410   0x0000001c   Code   RO          206    i.pid_init          pid.o
    0x0800542c   0x00000050   Code   RO          207    i.pid_param_init    pid.o
    0x0800547c   0x0000000c   Code   RO          208    i.pid_reset         pid.o
    0x08005488   0x00000078   Code   RO         4888    i.prvAddCurrentTaskToDelayedList  tasks.o
    0x08005500   0x00000088   Code   RO         4889    i.prvAddNewTaskToReadyList  tasks.o
    0x08005588   0x00000040   Code   RO         4890    i.prvCheckTasksWaitingTermination  tasks.o
    0x080055c8   0x00000040   Code   RO         4891    i.prvDeleteTCB      tasks.o
    0x08005608   0x00000050   Code   RO         5584    i.prvHeapInit       heap_4.o
    0x08005658   0x00000028   Code   RO         4892    i.prvIdleTask       tasks.o
    0x08005680   0x0000007e   Code   RO         4893    i.prvInitialiseNewTask  tasks.o
    0x080056fe   0x00000002   PAD
    0x08005700   0x00000060   Code   RO         4894    i.prvInitialiseTaskLists  tasks.o
    0x08005760   0x0000005c   Code   RO         5585    i.prvInsertBlockIntoFreeList  heap_4.o
    0x080057bc   0x00000024   Code   RO         4895    i.prvResetNextTaskUnblockTime  tasks.o
    0x080057e0   0x00000030   Code   RO         5653    i.prvTaskExitError  port.o
    0x08005810   0x000000e8   Code   RO         5586    i.pvPortMalloc      heap_4.o
    0x080058f8   0x00000034   Code   RO         1296    i.pwm_Init          tim.o
    0x0800592c   0x0000002c   Code   RO         5654    i.pxPortInitialiseStack  port.o
    0x08005958   0x00000130   Code   RO          682    i.referee_data_solve  rc.o
    0x08005a88   0x00000104   Code   RO          683    i.referee_unpack_fifo_data  rc.o
    0x08005b8c   0x0000005a   Code   RO           18    i.set_moto_current  bsp_can.o
    0x08005be6   0x00000002   PAD
    0x08005be8   0x00000108   Code   RO          684    i.ui_draw           rc.o
    0x08005cf0   0x000000b8   Code   RO          279    i.usart3_init       bsp_usart.o
    0x08005da8   0x00000064   Code   RO          280    i.usart3_tx_dma_enable  bsp_usart.o
    0x08005e0c   0x00000026   Code   RO         4514    i.uxListRemove      list.o
    0x08005e32   0x00000002   PAD
    0x08005e34   0x00000014   Code   RO         1097    i.vApplicationGetIdleTaskMemory  freertos.o
    0x08005e48   0x00000016   Code   RO         4515    i.vListInitialise   list.o
    0x08005e5e   0x00000006   Code   RO         4516    i.vListInitialiseItem  list.o
    0x08005e64   0x00000036   Code   RO         4517    i.vListInsert       list.o
    0x08005e9a   0x00000018   Code   RO         4518    i.vListInsertEnd    list.o
    0x08005eb2   0x00000002   PAD
    0x08005eb4   0x00000040   Code   RO         5656    i.vPortEnterCritical  port.o
    0x08005ef4   0x0000002c   Code   RO         5657    i.vPortExitCritical  port.o
    0x08005f20   0x00000064   Code   RO         5587    i.vPortFree         heap_4.o
    0x08005f84   0x00000024   Code   RO         5658    i.vPortSetupTimerInterrupt  port.o
    0x08005fa8   0x00000050   Code   RO         4904    i.vTaskDelay        tasks.o
    0x08005ff8   0x00000088   Code   RO         4917    i.vTaskStartScheduler  tasks.o
    0x08006080   0x00000010   Code   RO         4919    i.vTaskSuspendAll   tasks.o
    0x08006090   0x00000060   Code   RO         4920    i.vTaskSwitchContext  tasks.o
    0x080060f0   0x0000003c   Code   RO          317    i.verify_CRC16_check_sum  crc8_crc16.o
    0x0800612c   0x00000026   Code   RO          318    i.verify_CRC8_check_sum  crc8_crc16.o
    0x08006152   0x00000002   PAD
    0x08006154   0x00000104   Code   RO         5660    i.xPortStartScheduler  port.o
    0x08006258   0x0000006c   Code   RO         4923    i.xTaskCreate       tasks.o
    0x080062c4   0x00000060   Code   RO         4924    i.xTaskCreateStatic  tasks.o
    0x08006324   0x000000d4   Code   RO         4931    i.xTaskIncrementTick  tasks.o
    0x080063f8   0x000000cc   Code   RO         4937    i.xTaskResumeAll    tasks.o
    0x080064c4   0x00000300   Data   RO          320    .constdata          crc8_crc16.o
    0x080067c4   0x000000a8   Data   RO         1099    .constdata          freertos.o
    0x0800686c   0x00000008   Data   RO         2357    .constdata          stm32f4xx_hal_dma.o
    0x08006874   0x00000010   Data   RO         4377    .constdata          system_stm32f4xx.o
    0x08006884   0x00000008   Data   RO         4378    .constdata          system_stm32f4xx.o
    0x0800688c   0x00000048   Data   RO         1100    .conststring        freertos.o
    0x080068d4   0x00000020   Data   RO         5791    Region$$Table       anon$$obj.o


    Execution Region RW_IRAM1 (Base: 0x20000000, Size: 0x00006178, Max: 0x00030000, ABSOLUTE, COMPRESSED[0x00000038])

    Base Addr    Size         Type   Attr      Idx    E Section Name        Object

    0x20000000   0x00000008   Data   RW           20    .data               bsp_can.o
    0x20000008   0x00000002   Data   RW          321    .data               crc8_crc16.o
    0x2000000a   0x00000002   PAD
    0x2000000c   0x00000030   Data   RW          591    .data               key.o
    0x2000003c   0x00000002   Data   RW          592    .data               key.o
    0x2000003e   0x00000002   PAD
    0x20000040   0x0000000c   Data   RW          646    .data               remote_control.o
    0x2000004c   0x0000002c   Data   RW          688    .data               rc.o
    0x20000078   0x00000018   Data   RW          743    .data               ammo-booster.o
    0x20000090   0x0000000c   Data   RW          793    .data               chassis.o
    0x2000009c   0x00000050   Data   RW          880    .data               gimble.o
    0x200000ec   0x00000004   Data   RW         1004    .data               main.o
    0x200000f0   0x00000058   Data   RW         1101    .data               freertos.o
    0x20000148   0x00000004   Data   RW         1212    .data               can.o
    0x2000014c   0x00000002   Data   RW         1501    .data               stm32f4xx_it.o
    0x2000014e   0x00000002   PAD
    0x20000150   0x0000000c   Data   RW         2804    .data               stm32f4xx_hal.o
    0x2000015c   0x00000004   Data   RW         4379    .data               system_stm32f4xx.o
    0x20000160   0x0000003c   Data   RW         4940    .data               tasks.o
    0x2000019c   0x00000020   Data   RW         5593    .data               heap_4.o
    0x200001bc   0x0000000c   Data   RW         5661    .data               port.o
    0x200001c8   0x00000320   Zero   RW           19    .bss                bsp_can.o
    0x200004e8   0x00000014   Zero   RW          645    .bss                remote_control.o
    0x200004fc   0x00000400   Zero   RW          685    .bss                rc.o
    0x200008fc   0x00000125   Zero   RW          686    .bss                rc.o
    0x20000a21   0x00000400   Zero   RW          687    .bss                rc.o
    0x20000e21   0x00000003   PAD
    0x20000e24   0x00000028   Zero   RW          878    .bss                gimble.o
    0x20000e4c   0x00000578   Zero   RW          997    .bss                main.o
    0x200013c4   0x00000438   Zero   RW          998    .bss                main.o
    0x200017fc   0x00000010   Zero   RW          999    .bss                main.o
    0x2000180c   0x00000014   Zero   RW         1001    .bss                main.o
    0x20001820   0x00000254   Zero   RW         1098    .bss                freertos.o
    0x20001a74   0x00000088   Zero   RW         1211    .bss                can.o
    0x20001afc   0x00000138   Zero   RW         1297    .bss                tim.o
    0x20001c34   0x00000064   Zero   RW         1396    .bss                usart.o
    0x20001c98   0x00000394   Zero   RW         1397    .bss                usart.o
    0x2000202c   0x0000000e   Zero   RW         1493    .bss                stm32f4xx_it.o
    0x2000203a   0x00000002   PAD
    0x2000203c   0x00000048   Zero   RW         1670    .bss                stm32f4xx_hal_timebase_tim.o
    0x20002084   0x000000f0   Zero   RW         4939    .bss                tasks.o
    0x20002174   0x00003c00   Zero   RW         5592    .bss                heap_4.o
    0x20005d74   0x00000004   PAD
    0x20005d78   0x00000400   Zero   RW            1    STACK               startup_stm32f427xx.o


==============================================================================

Image component sizes


      Code (inc. data)   RO Data    RW Data    ZI Data      Debug   Object Name

       492         42          0         24          0       1195   ammo-booster.o
       486         50          0          8        800     755639   bsp_can.o
       284         36          0          0          0       1724   bsp_usart.o
       424         44          0          4        136       2530   can.o
       628         66          0         12          0      33233   chassis.o
       130          0          0          0          0      23199   cmsis_os.o
       238         22        768          2          0       4932   crc8_crc16.o
       156          4          0          0          0        870   dma.o
         0          0          0          0          0      16948   event_groups.o
       194          0          0          0          0       9381   fifo.o
      1008         96        240         88        596      14835   freertos.o
      1048        144          0         80         40       3869   gimble.o
       288         22          0          0          0       1143   gpio.o
       504         32          0         32      15360       7679   heap_4.o
       156         10          0         50          0       1379   key.o
       144          0          0          0          0       3678   list.o
       430         64          0          4       2516       4404   main.o
       948         54          0          0          0       4705   pid.o
       730         82          0         12          0      11284   port.o
       828         32          0         44       2341      11096   rc.o
       256         26          0         12         20       2703   remote_control.o
        36          8        428          0       1024        852   startup_stm32f427xx.o
       116         18          0         12          0       8970   stm32f4xx_hal.o
      2064         32          0          0          0       8340   stm32f4xx_hal_can.o
       158         14          0          0          0      33202   stm32f4xx_hal_cortex.o
      1154         16          8          0          0       8394   stm32f4xx_hal_dma.o
       518         54          0          0          0       3017   stm32f4xx_hal_gpio.o
        56          4          0          0          0        870   stm32f4xx_hal_msp.o
      1392         86          0          0          0       6149   stm32f4xx_hal_rcc.o
      2586        166          0          0          0      20950   stm32f4xx_hal_tim.o
       232         28          0          0          0       3437   stm32f4xx_hal_tim_ex.o
       116         16          0          0         72       1443   stm32f4xx_hal_timebase_tim.o
      2350         42          0          0          0      19335   stm32f4xx_hal_uart.o
       532        136          0          2         14      12756   stm32f4xx_it.o
         0          0          0          0          0        392   stream_buffer.o
        84         18         24          4          0       1207   system_stm32f4xx.o
      1630        142          0         60        240      20949   tasks.o
      1076         90          0          0        312       6041   tim.o
      1448        122          0          0       1016       7425   usart.o

    ----------------------------------------------------------------------
     24964       1818       1500        456      24496    1080155   Object Totals
         0          0         32          0          0          0   (incl. Generated)
        44          0          0          6          9          0   (incl. Padding)

    ----------------------------------------------------------------------

      Code (inc. data)   RO Data    RW Data    ZI Data      Debug   Library Member Name

        86          0          0          0          0          0   __dczerorl2.o
         0          0          0          0          0          0   entry.o
         0          0          0          0          0          0   entry10a.o
         0          0          0          0          0          0   entry11a.o
         8          4          0          0          0          0   entry2.o
         4          0          0          0          0          0   entry5.o
         0          0          0          0          0          0   entry7b.o
         0          0          0          0          0          0   entry8b.o
         8          4          0          0          0          0   entry9a.o
        30          0          0          0          0          0   handlers.o
        36          8          0          0          0         68   init.o
        30          0          0          0          0         68   llshl.o
        32          0          0          0          0         68   llushr.o
        36          0          0          0          0         68   memcpya.o
        36          0          0          0          0        108   memseta.o
        98          0          0          0          0         92   uldiv.o

    ----------------------------------------------------------------------
       404         16          0          0          0        472   Library Totals
         0          0          0          0          0          0   (incl. Padding)

    ----------------------------------------------------------------------

      Code (inc. data)   RO Data    RW Data    ZI Data      Debug   Library Name

       404         16          0          0          0        472   mc_w.l

    ----------------------------------------------------------------------
       404         16          0          0          0        472   Library Totals

    ----------------------------------------------------------------------

==============================================================================


      Code (inc. data)   RO Data    RW Data    ZI Data      Debug   

     25368       1834       1500        456      24496    1060455   Grand Totals
     25368       1834       1500         56      24496    1060455   ELF Image Totals (compressed)
     25368       1834       1500         56          0          0   ROM Totals

==============================================================================

    Total RO  Size (Code + RO Data)                26868 (  26.24kB)
    Total RW  Size (RW Data + ZI Data)             24952 (  24.37kB)
    Total ROM Size (Code + RO Data + RW Data)      26924 (  26.29kB)

==============================================================================

